:0200000400807A
:100000003C3CA5A5C3C35A5A20000000380200009A
:1000100000100020FFFFFFFF0000FFFFED9EC94D15
:1000200000B589B072B61D4C4FF47043C4F8C830A7
:10003000012000F0DFF800F0FFF800F083F8012065
:1000400000F050F820220021684600F0F9F86A46D6
:1000500020231021012000F033F8DDE90023DB43E9
:100060009A4208BFA263DDE90223DB439A4204BF40
:100070000B4BC3F89020DDE90623DB439A4204BF13
:10008000074B5A614FF40003D3F8002382F308882A
:1000900062B6D3F804339847FEE700BF00D00040B3
:1000A00000F00040014B04221A61704700C000407C
:1000B000024AD2F8DC305B05FBD5704700D0004027
:1000C0001FB5039002910192009300F06BF8009B22
:1000D000019A0299039800F0ABF805B05DF804EBC3
:1000E00000F030B810B504466401FFF7DBFF04F000
:1000F0002004024B44F001041C6010BD00A000402D
:100100004FF08043054A1A6100225A614FF00052B5
:100110009A615A6842F480525A60704700100B424C
:100120004FF08043054A1A61054A5A6100229A61DC
:100130005A6842F480525A60704700BF71100F1124
:10014000000010BB10B586B000F066F818BB00F0D8
:100150007BF8044600F054F850B1FFF7E1FF0120AE
:1001600000F054F8204606B0BDE8104000F070B82A
:100170000A4B01934FF06B4302934FF000530393EC
:10018000074B049301A80DF10303059300F04CF80D
:10019000FFF7B6FFE3E706B010BD00BF71100B42DA
:1001A0000100310010B586B000F036F8E0B100F083
:1001B0004BF80446FFF77CFF00F022F858B90B4BD0
:1001C0000B4A02900390049301A80DF103030192DE
:1001D000059300F029F8002000F018F8204606B03A
:1001E000BDE8104000F034B806B010BD0100310089
:1001F00000100B42014B1870704700BF3001002007
:10020000014B1878704700BF30010020014B587037
:10021000704700BFEC000020014B5878704700BFCA
:10022000EC000020000000005FF800F0091800005A
:100230005FF800F0391400005FF800F0E9220000D8
:100240005FF800F0A12F00005FF800F0DD20000053
:100250005FF800F0E5200000B527665200000000BE
:10026000000000000000000000000000000000008E
:10027000000000000000000000000000000000007E
:10028000000000000000000000000000000000006E
:10029000000000000000000000000000000000005E
:1002A000000000000000000000000000000000004E
:1002B000000000000000000000000000000000003E
:1002C000000000000000000000000000000000002E
:1002D000000000000000000000000000000000001E
:1002E000000000000000000000000000000000000E
:1002F00000000000000000000000000000000000FE
:1003000040270020653C8000613C8000613C80000B
:10031000613C8000613C8000613C80000000000086
:100320000000000000000000000000005D2300004D
:10033000613C800000000000613C8000A5020020BC
:1003400000000000000000000000000000000000AD
:10035000000000000000000000000000000000009D
:10036000000000000000000000000000000000008D
:10037000000000000000000000000000000000007D
:10038000000000000000000000000000000000006D
:10039000000000000000000000000000000000005D
:1003A000000000000000000000000000000000004D
:1003B000000000000000000000000000000000003D
:1003C000000000000000000000000000000000002D
:1003D000000000000000000000000000000000001D
:0C03E00000000000000000000000000011
:1003EC004046494652465B46FFB500F057F800F0D0
:1003FC007FF830BF00F066F800F07BF8FFBC804659
:10040C00894692469B4600BD72B67047074A08491A
:10041C0001239362D36A23F0FF0343F04103D362B9
:10042C00044B04229A6399639A63704700D000408E
:10043C000400008000F0004010B5094CD4F8E830FE
:10044C009B070BD440F299536363322000F02EF9D2
:10045C00E36A23F0E06343F08063E36210BD00BF06
:10046C0000D0004008B5FFF7E7FF4FF0804253681B
:10047C0023F4805323F0070343F4805343F0060323
:10048C005360BDE80840FFF7C1BF0000024AD2F834
:10049C00DC305B05FBD5704700D00040EFF31482D5
:1004AC00054B1A70EFF30982044B1A60EFF30882C4
:1004BC00034B1A60704700BFC4040020CC0400201A
:1004CC00C8040020074B1B6883F30888064B1B6885
:1004DC0083F30988054B1B7883F31488BFF36F8F64
:1004EC00704700BFC8040020CC040020C4040020C6
:1004FC00704770471FB503900291019200F08EF87F
:10050C00019A0299039800F0D5F805B05DF804EB58
:10051C0000F04EB81FB503900291019200F07EF8E6
:10052C00019A0299039800F0D5F805B05DF804EB38
:10053C0000F03EB807B5019000F070F801988121E9
:10054C0000F0BCF803B05DF804EB00F031B800002B
:10055C00024A136801331360704700BFD4040020B3
:10056C00014B1868704700BFD40400204FF0804343
:10057C00054A1A6100225A614FF000529A615A687A
:10058C0042F480525A60704700100B424FF0804387
:10059C00054A1A61054A5A6100229A615A6842F466
:1005AC0080525A60704700BF71100F11000010BBD1
:1005BC0010B586B000F06CF848BB00F083F8044628
:1005CC0000F05AF850B1FFF7E1FF012000F05AF8A3
:1005DC00204606B0BDE8104000F064B80D4B019306
:1005EC004FF06B4302934FF0005303930A4B049369
:1005FC0001A80DF10303059300F068F89DF8033092
:10060C003C2B01D000F04AF8FFF7B0FFDDE706B055
:10061C0010BD00BF71100B420100310010B586B047
:10062C0000F036F810B300F04DF80446FFF72EFF3B
:10063C0000F022F888B90E4B0E4A029003900493F6
:10064C0001A80DF103030593019200F03FF89DF80A
:10065C0003303C2B01D000F021F8002000F012F800
:10066C00204606B0BDE8104000F01CB806B010BD26
:10067C000100310000100B42014B1878704700BF8D
:10068C0030010020014B5870704700BFEC00002077
:10069C00014B5878704700BFEC00002008B5FFF7FD
:1006AC00B3FEFEE75FF800F0E52000005FF800F015
:1006BC00792300005FF800F0891300005FF800F068
:1006CC00B72300005FF800F0DD2000005FF800F0B9
:1006DC00091800005FF800F0B11A0000B11E80008C
:1006EC00600A002010000C0000000000FF00000059
:1006FC00FA000000F43E8000B83E8000C03E80004E
:10070C00CF3E8000DC3E8000E83E80006404002088
:10071C00000000004C4480006C4480002C4480009D
:10072C0000000000000000000000000000000000BD
:10073C0000000000000000000000000000000000AD
:10074C00000000000000000000000000000000009D
:10075C00000000000000000000000000000000008D
:10076C00000000000000000000000000000000007D
:10078000F8B500BFF8BC08BC9E467047F8B500BF7E
:10079000F8BC08BC9E467047A3F5803A704700BF7E
:1007A000174B002B08BF134B9D46FFF7F5FF0021A9
:1007B0008B460F461348144A121A02F4F1F30E4BFB
:1007C000002B00D098470D4B002B00D098470020FD
:1007D000002104000D000D48002802D00C48AFF3A2
:1007E000008003F0ABFC2000290003F01DFB03F0A8
:1007F0008FFC00BF000008000000000000000000A7
:1008000040270020C4040020400F0020000000000A
:100810000000000000F0FC0303F1804303F50D230A
:1008200030B500F003041A6AE400FF25A54022EA6F
:100830000502A1400A431F281A62074A4FF001032C
:1008400005D9916C203883400B43936430BD516CC3
:1008500083400B435364F9E700D000407047000029
:100860002DE9F0412A4D00242E6E0127A04607FAFB
:1008700004F313EA060118BF2B6504F1080307FA15
:1008800003F318BF02213342E0B212D02B6541F0CE
:100890000101C5F850806B6D6200D340421E03F029
:1008A0000103062A0CD8DFE802F012161A1F2429C9
:1008B0002E000029EDD10134082CD8D1BDE8F081FB
:1008C000002B0CBF18462120FFF7C8FFF3E7002BD1
:1008D00018BF2220F8E7002B18BF2320F4E7002BD5
:1008E00014BF2D202020EFE7002B14BF16200E2070
:1008F000EAE7002B14BF17202B20E5E7002B14BFDD
:1009000018201420E0E7002B14BF19201520DBE786
:1009100000F00040F8B5174E35690024ADB201274C
:1009200045FA04F3DA070BD5306B07FA04F3736169
:10093000A300D84044EA0010FF21C0B2FFF78EFFA9
:100940000134082CECD10B4E012745FA04F3DB07E8
:100950000CD507FA04F3706B7361A300203BD840F9
:1009600044EA0010FF21C0B2FFF778FF0134102CD9
:10097000EBD1F8BD00B00840154B164ADA664FF0CF
:10098000C04100225A6699661349C3F88C10C3F817
:100990008420C3F8AC1001F18061C3F8A420C3F82F
:1009A000CC10C3F8C42003F500234FF080724FF041
:1009B00000519A60094BCB64094B0822C3F880218F
:1009C0001A600848C1F8CC00C3F884215A60704707
:1009D00000D000400000FF9F0000FFFF6108800082
:1009E00000E100E01509800003095B0103F1804389
:1009F00082B003F550438DF80700596E4FF48032F2
:100A000000F00F0002FA00F00843586602B0704789
:100A100013B503095B0103F1804101F550418DF8E5
:100A200007004C6E4FF4803200F00F0002FA00F025
:100A300024EA00044C66CA6E22EA0000C86602B0CE
:100A400010BD0000054B00F00F02000903EB8020F1
:100A500082B0012340F8223002B07047800C1A4265
:100A6000064B00F00F02000903EB802000EB820030
:100A700082B00023036002B0704700BF800C1A42AE
:100A800082B08DF80700032915D8DFE801F00216BF
:100A90002B3D9DF8072013095B0103F1804303F50B
:100AA000504302F00F02996E4FF0011000FA02F26B
:100AB00021EA02029A6602B070479DF807100B09FE
:100AC0005B0103F1804303F5504301F00F019A6E7F
:100AD0004FF48030884022EA0002012000FA01F140
:100AE0000A43E7E79DF807100B095B0103F1804318
:100AF00003F5504301F00F019A6E0120884022EA6D
:100B000000024FF48030E9E79DF8072013095B01EC
:100B100003F1804303F5504302F00F01986E4FF04C
:100B200001128A400243C5E708B508B302210C2030
:100B3000FFF7A6FF02210B20FFF7A2FF0B20FFF714
:100B400067FF0C20FFF764FF4D210C20FFF762FECA
:100B50004E210B20FFF75EFE064A136F43F0006341
:100B60001367A2F58052536843F01003536008BD29
:100B70000121DCE700D000400E490F48D1F8883051
:100B800043F47003C1F888300C4B5A6942F4E042D8
:100B90005A619A6A22F0300242F010029A620622EA
:100BA0009A6398639A634FF000538B604FF46150DF
:100BB00001F4E2B300ED00E00600008000F0004028
:100BC00008B504F0ADFB04F0B7FB4FF000530A4A40
:100BD0001A660A4B4FF48072C3F880211A6000F045
:100BE00077F9FFF7C9FE00F02FF800F09DF8BDE897
:100BF000084000F01BB900BF0D0D800000E100E0CF
:100C000038B504460D460FC8A847206038BD00001F
:100C1000094B0A4AD3F8E4305B0503F400131A4386
:100C2000074BDA633C221A6239225A62054A5A6338
:100C300043F6FF725A64704700D00040560F14000C
:100C400000F00040FFFF3F00034B044A5B081B0617
:100C5000D360FFF7DDBF00BF4901002000F0004076
:100C6000024B5B0103F1085358677047D004000042
:100C700008447047401A7047014B1869704700BF1D
:100C800000F10040014B5860704700BF00F1004088
:100C9000044B04221A60044A536A43F0040353626B
:100CA000704700BF00E100E000F00040064B042266
:100CB000C3F88020BFF34F8FBFF36F8F034A536A8F
:100CC00023F004035362704700E100E000F00040AD
:100CD000064B1A6842F004021A60054A0421C2F861
:100CE00080111A6822F004021A60704700F1004077
:100CF00000E100E04FF0005301229864024BDA62F9
:100D00000322C3F80021704700F000400420714620
:100D1000084202D0EFF3098001E0EFF3088021469A
:100D2000004A1047010C8000074B084900221A6056
:100D30004FF00053D9634FF0E0234FF6FF11596194
:100D40009A6107221A617047D4040020A50200208E
:100D50000346006850B10268904217BF4168002204
:100D60000A6051601A600023036043607047F8B561
:100D7000036806460C4617461BB9016009604960C6
:100D8000F8BD5D6829462046B84728B12B685C60ED
:100D9000C4E900352C60F3E733686D685A68AA42ED
:100DA000F0D12C60C4E900355C603460E8E700688D
:100DB000704708B549694069FFF75CFFC043C00F41
:100DC00008BD000070B5FFF771FF154D154E1448B2
:100DD000FFF7EDFF044610B3FFF77AFF6069FFF7F6
:100DE00051FFFFF749FF6169FFF744FF002812DB5D
:100DF0002846FFF7ADFFA368E06898470028E6D0D3
:100E000021696069FFF734FF324660612146284658
:100E1000FFF7ADFFDBE7BDE87040FFF739BF70BDFE
:100E2000D8040020B30D8000FFF7CCBF0148FFF7C6
:100E300061BF00BF290E80000EB417B505A9044696
:100E400051F8040B019103F003FA14B10A2003F0E6
:100E5000D9F903B0BDE8104003B070472573000016
:100E6000F8B54B0009336A46DB08A2EBC30300AFB9
:100E7000114D9D466A4600230DF101069CB2A14228
:100E80000CD802EB41030A2002F81100002159702E
:100E90000A48114603F09EF9BD46F8BDC45C4FEA0E
:100EA000141C04F00F0415F80CC02C5D02F813C0DC
:100EB00006F813400133E1E7F00E80005C0E80007D
:100EC00010B50020144600F033F9204610BD000094
:100ED000034B044A1A60044B044A1A6000F042B9FA
:100EE000E0040020390E8000DC040020610E800048
:100EF0003031323334353637383941424344454650
:100F000000000369C26893429CBF80681B18013BC4
:100F1000981A70472DE9F843C468D0F80890054640
:100F2000A9EB04084068904520440F46144406D9B4
:100F300003F028F9BFF35F8FEC60BDE8F883424609
:100F4000A4EB090403F01EF96868224607EB0801C8
:100F5000EEE72DE9F843C5680646894617464FF087
:100F600000083469B3687068A54228BFE418013CE2
:100F7000621B5C1BBC4228BF3C46944228BF1446FF
:100F800049462246284403F0FDF8B3682544A044AE
:100F9000A1443F1BAB4208BF0025BFF35F8FF56044
:100FA000002FDED14046BDE8F8835465726D696E4E
:100FB000616C0052545400534547474552000000AD
:100FC00010B5144C144AA261032323616361134BCF
:100FD000E36122664FF48063114A23626266002354
:100FE00010221049A362E01D6362E362A2662367D8
:100FF000E366636703F01CF9BFF35F8F0A4920467D
:1010000003F016F9BFF35F8F2023A371BFF35F8F47
:1010100010BD00BFE4040020AA0F80009C05002042
:101020008C050020B30F8000B70F80002DE9F84F2A
:10103000DFF87C8098F800308246894616460BB966
:10104000FFF7BEFF182707FB0A873D6FD7F86CB084
:101050005D452BD9BC6E796E641BB44228BF344603
:1010600029444846224603F08DF8BB6E2544A1442E
:10107000361BAB4208BF0025ABEB0502964228BFEA
:10108000164656B1182303FB0A833246596E48466A
:10109000294403F077F83444354424B1182000FB88
:1010A0000A88C8F870502046BDE8F88F0024E3E7AE
:1010B000E404002010B50B46EFF311844FF001015A
:1010C00081F311881946FFF7B1FF84F3118810BD31
:1010D00070B5164B182400FB04451D4404FB003377
:1010E0001646DC6A012C0ED0022C18D0E4B9284632
:1010F000FFF707FF864204D832462846FFF70AFF6B
:101100003446204670BD2846FFF7FBFE8642344633
:1011100028BF044622462846FFF7FCFEF1E7284692
:10112000BDE87040FFF715BF0024EAE7E4040020A3
:1011300037B50B4B1B780C462BB9CDE90002FFF7F6
:101140003FFFDDE90002EFF311854FF0010181F36C
:1011500011882146FFF7BCFF85F3118803B030BD2D
:10116000E4040020FFF72CBF054B40221A614FF02A
:1011700000538022D865034BC3F88021704700BF1D
:1011800000C0004000E100E0014B80221A6070477F
:1011900000E100E0044B8022C3F88020BFF34F8FB2
:1011A000BFF36F8F704700BF00E100E0024B18688B
:1011B000C0F3C010704700BF00E100E00120FFF75E
:1011C0004FBD70B522F00304930804440546A542C0
:1011D00010D16FF0030404FB03232240012B00EB2A
:1011E000020481BF023B825A0A8002340BB1237889
:1011F0000B7070BD55F8046B0E60E8E770B522F017
:101200000304930804440546A54212D16FF0030479
:1012100004FB0323012B02EA040284BF0D888552DC
:1012200000EB020484BF023B02340BB10B78237045
:1012300070BD0E6845F8046BE6E700002DE9F04F3D
:1012400098460C23174E03FB08F385B0894606EB3E
:10125000030A01A9F358154607469847BDF804400C
:10126000DAF808B00298AC4228BF2C46224649461C
:10127000D8472C1B0AD0BDF806A00398A24528BF6A
:10128000A24652464946D847A4EB0A040C2303FB66
:101290000866291B736889B23846984705B0BDE8CF
:1012A000F08F00BFF01C80002DE9F04700F07F02B6
:1012B000C0F3C01902F1FF3AC9EBC904254F5444E9
:1012C000023407EBC4044FEAC906A37A657A45EAFB
:1012D0000325214B9A73A288E07893F8108040EAA6
:1012E0000220A27940EA02609A7CA84542F02002DE
:1012F00028BFA8469A74B8F1000F18D0B7F8863006
:10130000164923FA0AF3DB0701EB8A0114D50123FE
:101310004246FFF793FFA6EB09065644023607EB59
:10132000C606A5EB08057572C5F30725B5720A4B0D
:1013300001225A74BDE8F0874246FFF742FF40445D
:10134000C0F30723E0702371C0F30743000E6371FD
:10135000A071E0E79C09002000100040241000402C
:101360002DE9F04F4C4B89B001F07F0502909D7341
:1013700093461A7DD207884609D44FF0E023D3F86C
:10138000F03DDB0700D500BE09B0BDE8F08FCE0907
:1013900093F813A0DF8A414CF3000193013DC6EBA3
:1013A000C6032B44023304EBC3035FFA8AFA9A881C
:1013B000D87840EA02209A7950EA0260BFB206D19A
:1013C000374B1A78002AD8D101221A70DCE79A7AB2
:1013D00093F80990574549EA02293A4628BF5246F0
:1013E0004A45019228BF4A461746C2B1B4F884C0A4
:1013F0002C492CFA05FC1CF0010F01EB85013CD0B7
:101400000023FFF71BFFC6EBC6032B44023304EB9C
:10141000C303A9EB07015972C1F307219972BA45B9
:1014200002D8019B994522D8F3009E1B3544023512
:1014300004EBC5040023217AE279A07AE37042EA42
:101440000122617A237141EA0021059306936371B9
:10145000A371029B8DF81430521A0723594605A830
:101460008DF815308DF81880079200F08BFD0A4A30
:10147000137D03F0FE03137586E70393FFF7BEFEAB
:10148000039B3844C0F30721D8701971C0F307419A
:10149000000E59719871B6E7001000409C090020B9
:1014A000240A0020241000407FB5214B01F07F0268
:1014B0000C060546CEB29A7317D5587C800605D522
:1014C0005A7C02F0DB025A7404B070BD194B08322A
:1014D00003EBC2035A7A987A52EA002214D00846E3
:1014E00004B0BDE87040FFF7DFBE1A7D520604D598
:1014F0001A7D02F0BB021A75E6E70122314604B0FC
:10150000BDE87040FFF72CBFDC791B7A0192029294
:1015100044EA03230722012101A88DF804508DF825
:1015200005208DF80860039300F02CFDCCE700BF88
:10153000001000409C090020F8B5CD09C5EBC50797
:1015400001F07F043C44671C104C04EBC704DFB27D
:101550001B0A2372A372C2F307232371C2F307434A
:101560006371130EE7716772E270A37125B10846CB
:10157000FFF79AFE0120F8BD054B1A78002AF9D032
:101580002A461D70FFF7ECFEF4E700BF9C0900201F
:10159000240A0020FFF7F8BDFFF7FCBD064B002230
:1015A0005A74DA721A735A739A73DA731A749A74D1
:1015B000024B48225A7470479C09002000100040DA
:1015C000024A537843F040035370704700100040C4
:1015D00010B504460648FFF7C7FDFFF7EFFD054AC3
:1015E000D37A43F00103D3722046FFF7E9FF10BD21
:1015F000E91C80000010004070B58B7803F07F0478
:10160000062C09D94FF0E023D3F8F00D10F00100BB
:1016100001D000BE002070BDDB0908794D79CE787D
:10162000C3EBC302224440EA0525501C2F4A02EBBB
:10163000C0020020D070107150719071D071107282
:10164000507290722A4A06F00306C5F30A01947399
:10165000E8B223B3012E0CBF40230023107493740F
:10166000537CD8074CBF482340235374204A50680A
:101670009368D579DBB21B0243EA1063012000FABC
:1016800004F42343DCB2D471C3F30723147A137236
:1016900020294FF00803137721D9602320E0012E81
:1016A00008BF4023D0745375137DDB074CBF9023D4
:1016B000802313750E4A95680120C5F30F2500FAA3
:1016C00004F42C43E3B2557A5372937AC4F307249B
:1016D000082320299472937704D9602303E05023D0
:1016E000537798E75023D37795E700BF9C090020F4
:1016F00000100040F8B5FFF759FD0446FFF74AFD1A
:101700001A4B0121DA79D9710022187A1A72587AA3
:101710005A72987A9A7240254826104680274FF0D0
:10172000900C5FFA81FE83F80EE01A749A7493F8B5
:1017300011E01EF0010F14BF5E745D74D87458750B
:1017400093F814E001311EF0010F14BF83F814C0A8
:101750001F7507291A775A779A77DA77E1D11CB182
:10176000BDE8F840FFF710BDF8BD00BF0010004015
:101770002DE9F04F87B001F07F0482468946164676
:101780009846FFF713FD0746FFF704FDDCB14FEA6B
:10179000D91303F14002554B03EB4203013C0120F6
:1017A000A0409C8824EA00049C8032464346494677
:1017B0005046FFF7C1FE04460FB1FFF7E5FC204697
:1017C00007B0BDE8F08FB8F1400F07D94FF0E02324
:1017D000D3F8F03DDB0761D40024EDE7434D2B78CF
:1017E000FF2B08D1B8F1000FF0D10021FF2BA97217
:1017F00045D00124E0E795F90A40002CF5D1DFF847
:10180000F4A0DB09B3EBD91F4FEAD9118AF80E40D7
:101810005FD12B899845D9D843451A4628BF4246FF
:101820001FFA82F95FFA82FB00293DD03049304629
:10183000CDE90023FFF7C5FC009A019B85F80FB0A6
:101840001044C0F307212973C0F30741E87269739C
:10185000000E4FEA1921402AA3EB0909A873297445
:101860006C74AC74A5F8089001D1434518D8FF23D7
:101870002B70204B01240A22AC725A749CE7072378
:1018800003A8039104918DF80CA08DF80D308DF80C
:101890001090CDF8148000F075FBAAE700BE8BE72E
:1018A00002238AF81130A4E7C6F307234FEA192967
:1018B000EE722B73C6F30743360E6B73AE7385F867
:1018C0000FB085F8109085F811B085F8129040237C
:1018D000E7E700298DD0EC722C736C73AC73EC735A
:1018E0002C746C74AC744823DBE700BF9C090020A7
:1018F000201000400010004070B501F07F060C463B
:10190000FFF754FC0546FFF745FC86B954B9124B66
:10191000FF221A709C73DC721C735C730F4B2022C5
:101920009C735A749DB1BDE87040FFF72DBC0B4B02
:10193000E2099E7301D01022F3E71A7DD20707D582
:101940004FF0E023D3F8F03DDB0700D500BE70BDBB
:1019500020221A75E6E700BF9C0900200010004015
:1019600070B50B4E01F07F03B3730C46FFF71EFCFE
:101970000546FFF70FFCE30915BF4023802373746E
:1019800033751DB1BDE87040FFF7FEBB70BD00BFF1
:10199000001000402DE9FF47B04B9C795E88B3F8FA
:1019A0000480DB7A1C4022070546B6B21FFA88F88D
:1019B0000CD500230193029303938DF804000323B5
:1019C000012101A88DF8053000F0DCFA63072BD562
:1019D000A24BA3495A7842F001025A70FF220A70C2
:1019E00000228A72CA720A734A738A73D9790121F2
:1019F000D971187A1A72587A5A72987A9A7210466D
:101A0000CFB2013107299F73187758779877D87725
:101A1000F6D1012101A80192029203928DF804509F
:101A20008DF8051000F0AEFAA7070CD5002301933E
:101A3000029303930121052301A88DF804508DF82A
:101A4000053000F09FFAE0070DD5002301930293C3
:101A50000393042301210DEB03008DF804508DF84E
:101A6000053000F08FFA7D4A51689368DBB21B02A3
:101A700043EA11631E40F10709D500219173537C9D
:101A8000DFB213F0040311D0517426F001060127D0
:101A9000002E40F00E81714B9C68012708EA142447
:101AA000002C40F0148104B0BDE8F0876C4C07F0C6
:101AB000010917F01007217864D08020FF295074A5
:101AC00026D0A089E27A42EA0022A07B52EA006294
:101AD0001ED0FF22207C2270E27BA77CE37242EAC8
:101AE0000022607C237340EA072021F07F010193EC
:101AF000121A02936373A3738DF808100723012150
:101B000001A88DF804508DF80530039200F03AFAE0
:101B1000B9F1000FB9D0514FBB7D082B5FFA83F9A3
:101B200072D13B6A4E4800930422694602F02AFBB8
:101B30003B6A4C4800930422694602F023FB0023D1
:101B40004749E37223736373A373E373237463746A
:101B5000A374ADF806304A46062302A88DF8053076
:101B60008DF8045002F00EFB012101A800F00AFAE2
:101B7000E3882381002B88D02378DB0985D040239C
:101B80007B7482E7B9F1000F47D0FF29C3D0A38946
:101B9000E07A40EA0320A37B50EA03603FF475AF8C
:101BA000637C94F8129092F816A02F4943EA092911
:101BB000CA4528BFCA46BAF1400F28BF4FF0400AB5
:101BC0005246FFF71BFB2289E772A9EB0A0399B281
:101BD000A2EB0A026374C3F30723A3742281E37B9D
:101BE000227C277343EA0223072201976773A773B6
:101BF0005B1A02978DF804508DF80520039301219C
:101C000001A800F0BFF940E74FF0E023D3F8F03D22
:101C1000DB077FF53AAF00BE37E7FF2926D0CB09B7
:101C200024D12388B3F5A06F04BFA3781370FF23DA
:101C3000227C2370E37BA17C43EA0223627C42EA9C
:101C400001229B1A00220192029207228DF80520A0
:101C500080228DF804508DF80820CFE70010004056
:101C60009C090020A009002020100040A289E37AEE
:101C700043EA0223A27B53EA02633FF406AF217CCE
:101C8000E27BA07C42EA0122617C00230193029363
:101C9000E37223736373A37341EA00210723521A8B
:101CA0008DF8053080238DF804508DF808300392AC
:101CB000A5E796FAA6F4B4FA84F444F08001284625
:101CC00007FA04F4FFF7F0FB26EA0406E0E694FACC
:101CD000A4F6B6FA86F63146284607FA06F6FFF766
:101CE000E3FB24EA0604DBE60020FFF753BE000016
:101CF000892F8000F52E8000FD1180001D2F8000AF
:101D0000092F8000C311800000F0ECB80378024670
:101D100013F0010011D11378C3F380015B070FD4D6
:101D2000137813F001000AD113785B0708D41378F5
:101D300043F00403137001207047002070470846E9
:101D400070470378C3F380015B0708D5037813F06D
:101D5000010203BF037862F3820303700021084687
:101D6000704703794279C07800F0030043EA022308
:101D70000228C3F30A0315D003281DD001280FD170
:101D8000022940F2FF3208BF4FF480629A420FD21C
:101D90004FF0E023D3F8F00D10F0010008D000BEA2
:101DA00000207047022904D1B3F5007FF0D1012053
:101DB0007047402BFBD9EBE702290CBF4FF4806240
:101DC00040229A42F3D2E3E730B50A44914200D36D
:101DD00030BD4C78052C06D18C7804F07F0500EBE3
:101DE0004505E4092B550C782144EFE70B4B63B113
:101DF0000B4B1B78834206D90A4B1B6800EB400053
:101E000003EBC0007047C01AC0B2012803D8064BCC
:101E100000EB4000F4E70020704700BF0000000026
:101E20002C0A0020280A00203028800037B50C46F4
:101E30000546C868019200F0A5FDE368019A0121FA
:101E4000284603B0BDE830401847000070B5144E76
:101E5000054600242046FFF7C9FF38B94FF0E023BC
:101E6000D3F8F03DDB0700D500BE70BD43682846BF
:101E7000984733780134E4B20133A342EADA2F22DF
:101E80000021084801F48CF01022FF21064801F4DB
:101E900087F0BDE8704005480E22FF2101F480B0B4
:101EA0002C0A00202D0A0020300A0020400A0020C1
:101EB000034A034610780BB1FFF76CBBFFF76CBB0E
:101EC00040040020024B5878003818BF01207047AA
:101ED0002D0A0020024B1878C0F38000704700BF25
:101EE0002D0A0020024B1878FF3818BF01207047D8
:101EF00040040020F8B51C4E3378FF2B05462FD147
:101F00001A4C1B482F22002101F44AF0201D00F03A
:101F1000E6FF184B1C60184B23B11848AFF3008044
:101F2000174B1860154F00242046FFF75FFF40B99C
:101F30004FF0E023D3F8F03D13F0010312D000BEC0
:101F4000F8BD036898473B780134E4B20133A342FB
:101F5000EADA28463570FFF73BFB2846FFF71AFB05
:101F60000120EDE71846EBE7400400203004002094
:101F70002D0A00205C0A0020000000002C0A00202E
:101F8000280A0020F0B54378023B85B005460C4690
:101F9000032B12D8DFE803F002631921314B1A78C2
:101FA0006FF300021A701A7800216FF341021A7061
:101FB00059701A7861F382021A702B4B1E6814B99B
:101FC000336820469847294637E0264B1A78D607CB
:101FD00043D51A7842F00402EEE7224A1378D80774
:101FE0003BD513786FF382031370E6E7FFF7FEFE2D
:101FF00020B1436913B169682878984701363B7866
:10200000F0B201338342F1DA164A1378590724D526
:1020100013786FF3820313700023019302930393E9
:102020002B788DF8043005238DF805300E4B1E6893
:1020300014B933682046984701A9301D00F025FFE8
:10204000054614B933680120984735B94FF0E023AD
:10205000D3F8F03DDB0700D500BE05B0F0BD034F5F
:102060000026CCE72D0A00205C0A00202C0A002064
:1020700038B58B7803F07F03062B0C4608D94FF058
:10208000E023D3F8F03DDB0700D500BE002038BDCB
:10209000074B1D78074B20469978FFF762FE002812
:1020A000EDD021462846BDE83840FFF7A5BA00BF6D
:1020B000400400202D0A00202DE9F047DDE90856F4
:1020C00081460C4690469A460027B84501DC01201F
:1020D0000EE06378052B04D1E37803F00303534546
:1020E0000AD04FF0E023D3F8F03DDA0702D4002005
:1020F000BDE8F08700BEFAE721464846FFF7B8FF83
:1021000038B94FF0E023D3F8F03DDB07EFD500BE40
:10211000EEE7A378DA0914BF33702B702378013708
:102120001C44D2E7CB0901F07F00213303EB4003CD
:10213000024800211844FFF7E9BD00BF2D0A002026
:10214000CB0901F07F00213303EB4003024800215B
:102150001844FFF7F6BD00BF2D0A0020174838B518
:1021600001F07F0500EB450000EBD11420346078CE
:10217000C00709D54FF0E023D3F8F03DDA0701D4CA
:10218000002038BD00BEFBE7607840F001006070C1
:102190000B480078FFF7ECFA0028F2D1637860F37F
:1021A00000036370637860F3820363704FF0E02391
:1021B000D3F8F03DDB07E3D500BEE2E72D0A0020AF
:1021C00040040020054B01F07F0203EB420303EBC8
:1021D000D11191F8210000F0010070472D0A002074
:1021E00010B50C4B01F07F0203EB420303EBD1145B
:1021F000203463789B070BD4074B1878FFF77CFBE0
:10220000637843F002036370637843F00103637003
:1022100010BD00BF2D0A00204004002010B50C4B5B
:1022200001F07F0203EB420303EBD1142034637807
:102230009B070BD5074B1878FFF792FB63786FF37A
:102240004103637063786FF30003637010BD00BFD8
:102250002D0A002040040020054B01F07F0203EB13
:10226000420303EBD11191F82100C0F34000704705
:102270002D0A00202DE9F04F87B0FFF745FD00281B
:1022800000F09382B04B1D682C46002054F8043BAC
:102290009847204603A900F0D0FD2B680446012092
:1022A0009847002C00F081829DF80D30013B072BF0
:1022B00000F2A882DFE813F008001300A6028402EF
:1022C00093021F0050029F029DF80C00FFF7BEFD15
:1022D00000F050FB9D4B9DF810209A70D2E79DF8BE
:1022E0000C00FFF7B3FD00F045FB994B002BC9D064
:1022F00001F014FDC6E7954C9DF80C50237843F08F
:102300000103237094F821306FF3000384F8213027
:1023100094F821306FF3820384F8213094F822304E
:102320006FF3000384F8223094F822306FF38203B5
:1023300084F82230002000F025FB9DF8106006F0A4
:102340006002602A11D14FF0E023D3F8F03DDC07A2
:1023500000D500BE9DF80C000021FFF7CDFA9DF8D6
:102360000C008021FFF7C8FA8CE7402A0DD179488C
:102370000028EFD000F006FB04AA01212846AFF3A5
:10238000008000287FF47EAFE4E706F01F06012EF0
:1023900000F07781022E00F09E81002ED3D1202AFA
:1023A0000FD19DF814300F2BD4D82344D878FFF7E1
:1023B0001DFD01460028CDD004AA2846FFF736FDB2
:1023C000DFE7002ABFD19DF81130092BBBD801A24D
:1023D00052F823F06D2680005B26800047238000A2
:1023E0004726800047238000FD238000852580004C
:1023F00047238000172480002D24800004A800F0CB
:10240000C7FA9DF812102846FFF7C8F8237843F062
:102410000203237036E763788DF80A3001230DF14B
:102420000A0204A9284600F067FA2BE79DF812A0DB
:1024300063789A453AD063783BB12846FFF75AF95A
:10244000A6782846FFF702FDA670BAF1000F2DD03E
:102450000AF1FF30C0B201F0FBFC10B14378022B4F
:1024600008D04FF0E023D3F8F03DDF077FF56BAFE6
:1024700000BE68E7C379C3F38012C3F340131B01A6
:1024800043EA4213227822F0300213432370837808
:10249000C27843EA0223C31800F109060093009BA7
:1024A000B3420AD82C4B0BB101F030FC84F801A0E8
:1024B00004A9284600F00CFAE4E673780B2B03BF5E
:1024C000337896F80380F6184FF001087378042BE0
:1024D000C7D1009B9A1B93B201934FF0000B1F4B87
:1024E0001B785FFA8BF70133BB42BADB3846FFF744
:1024F0007DFC81460028B4D08368019A3146284685
:102500009847082802463AD9019B834237D3B8F14D
:10251000010F06D1D9F8083011498B4208BF4FF09E
:1025200002080021CBB298451ED83B4631460D48E3
:102530000192FFF749FC094B019A1B7801339F4236
:102540001644ACDD8DE700BF5C0A00202D0A002098
:102550001D3D8000000000000D3D80002C0A002081
:1025600059318000400A0020B078034454FA83F3C4
:102570000131D878FF287FF474AFDF70D2E70BF118
:10258000010BACE7BDF81200030A5A1EC0B20E2AB6
:102590003FF6E0AE01A151F822F000BFD92580003E
:1025A00003268000252680005523800055238000C7
:1025B00039268000032680005523800055238000A3
:1025C000552380005523800055238000552380002B
:1025D00055238000EB25800001F036FC12230246D3
:1025E00004A9284600F088F9CBE68B4B002B3FF47A
:1025F000B1AEAFF30080024600283FF4A4AE43889A
:10260000EEE7022B07D101F023FC00283FF49BAE3C
:1026100043880246E4E7814B002B3FF49BAEAFF3C7
:102620000080F2E7BDF8141001F016FC0246002805
:102630003FF490AE0378D3E7794B002B3FF48AAE9A
:10264000AFF30080F2E7BDF81230012B7FF482AEC9
:10265000237843F0080323702AE7BDF81230012BDA
:102660007FF478AE23786FF3C303F4E72378C3F3E2
:1026700040129B0803F002031343ADF80A30022313
:10268000CDE69DF814300F2B3FF664AE2344D87886
:10269000FFF7ACFB014600283FF45CAE04AA2846D5
:1026A000FFF7C4FB00287FF4EDAD9DF8103013F068
:1026B00060047FF44FAE9DF811300A3B012B3FF6CA
:1026C00049AE00F05FF99DF811300A2B7FF4F0AEAF
:1026D0008DF80A40A2E69DF8141001F07F03062B46
:1026E0003FF631AE04EB430303EBD113D87CFFF785
:1026F0007DFB07462AB100283FF42CAE04AA014610
:102700005BE69DF8113003F0FD02012A08D0002B92
:102710007FF419AE2846FFF79FFDADF80A00AEE73B
:10272000BDF8122022B9012B284612D1FFF776FD01
:10273000002F3FF4A7AD04AA39462846FFF776FBE1
:10274000002000F01FF994F82230DE073FF59AAD23
:10275000AEE6FFF745FDEBE79DF81010314B01F0B9
:102760007F0403EB440303EBD11393F821006FF3D1
:10277000000083F8210093F821006FF3820083F8B2
:1027800021003CB9059B9DF811209DF80C0000F03C
:102790000DF977E5D87CFFF729FB48B94FF0E02326
:1027A000D3F8F03DD80700D500BE07B0BDE8F08FE4
:1027B0000469059B9DF811209DF80C00A04761E578
:1027C000184B1A78D1077FF55DAD174A002A3FF400
:1027D00059AD1878C0F3C00001F0A6FA52E5114BCC
:1027E0001B78DA077FF54EAD104B002B3FF44AAD56
:1027F00001F0A2FA46E5049B002B3FF443AD059897
:1028000098473FE54FF0E023D3F8F03DDB077FF535
:1028100039AD00BE36E500BF00000000000000003A
:10282000000000002D0A0020293D8000393D800075
:10283000DD3080002D31800059318000FD31800075
:10284000CD3280000000000099358000A93580005D
:10285000B9358000493680008137800000000000D3
:1028600037B514490446CA89888991F90050831AFA
:102870009BB2402B28BF4023002D10DA904214D089
:102880001A4689680C48019301F07CFC0A4A019BB6
:102890008021204603B0BDE83040FFF75FBC904286
:1028A0004FF0000103D10022F3E78021FBE7024A49
:1028B000EFE700BF200B0020340B002011F0800F49
:1028C0004FF000031A460CBF80211946FFF746BCA3
:1028D00038B5084B0446082218460D4601F052FC54
:1028E000002229788260C2602046BDE83840FFF7A8
:1028F000E5BF00BF200B00202DE9F041DFF870801C
:1029000014460746082240461D460E4601F03AFC92
:102910000023C8F80840A8F80E30B279F37942EAEB
:102920000322954228BF1546A8F80C5092B15DB11C
:1029300054B94FF0E023D3F8F03DDA0702D4002079
:10294000BDE8F08100BEFAE73846FFF789FF30B1F5
:102950000120F5E731783846FFF7B0FFF7E74FF091
:10296000E023D3F8F03DDB07E9D500BEE8E700BF80
:10297000200B002002481422002100F411B300BFF4
:10298000200B0020014B1861704700BF200B002076
:1029900008B5054B01460822184601F0F3FB00225A
:1029A0008260C26008BD00BF200B002070B52D4CB6
:1029B0001E462378C909B1EBD31F054618D04EB186
:1029C0004FF0E023D3F8F03DDA0701D4002070BDCA
:1029D00000BEFBE7244B13B12146AFF3008023690F
:1029E0000BB90120F3E71F4A032128469847F8E76F
:1029F00094F90030002B06DBA0680028E6D01B49C4
:102A0000324601F0BFFBA268E38932443344A2603E
:102A1000E2889BB29A42E38101D03F2E1ED82369FF
:102A20006BB921782846FFF749FF0028D9D14FF02C
:102A3000E023D3F8F03DDB07C8D500BEC7E702218D
:102A4000084A2846984701460028EAD12846FEF75A
:102A500053FF80212846FEF74FFFC2E72846FFF7C5
:102A6000FFFEE2E7200B002000000000340B0020F6
:102A70000A4492B291424FEA400001D8824201DBFF
:102A8000121A92B21046704738B50546D41A084655
:102A9000A988A4B29A423CBF04EB4104A4B2B4B1E9
:102AA000A14205D2914294BF521A521893B26B813F
:102AB000994209D9EA882968C2F30E0202FB031180
:102AC00001F060FB012038BD5B1A9BB2F0E72046A5
:102AD000F9E7930813B501EB8303044699420BD140
:102AE00012F0030206D0002301A8019301F04AFB73
:102AF000019B236002B010BD51F8040B2060EDE78C
:102B00002DE9FF47BDF8304085881E1BB6B2A342B1
:102B10003CBF06EB4506B6B280460F466EB3B542E3
:102B200006D29D4294BF5B1B5B199CB244812E462A
:102B3000964228BF1646A54223D9B8F806209DF82C
:102B40003430D8F80010A5EB0409751BC2F30E0051
:102B500025441FFA89FC15FB00F519FB00F9012B30
:102B600002461FFA89F9ADB200FB041116D0664582
:102B70000AD87243384601F005FB304604B0BDE880
:102B8000F087641BA4B2D6E74A46384601F0FAFA49
:102B9000D8F800102A4607EB0900ECE7664506D88E
:102BA00016FB00F292B23846FFF793FFE5E729F0F3
:102BB0000304A4B2224638460191FFF78AFF19F0B8
:102BC000030923D00199C9F1040A1FFA8AFAAA4518
:102BD0004FF0000321444A4603A828BFAA460393A6
:102BE00001F0D0FAD8F8004003AB214603EB09000E
:102BF000524601F0C7FAA5EB0A05039B3B60ADB254
:102C000004EB0A01002DB8D02A46CCE7D8F8001012
:102C1000F8E713B5930800EB8303984209D112F04B
:102C2000030204D00B68019301A901F0ABFA02B0D2
:102C300010BD0C6840F8044BEFE72DE9F04F164645
:102C4000C279078945898488D20985B0804689463A
:102C5000BFB2ADB214D1AF4236BFC5EB44057D1B48
:102C6000ED19ADB2A54236BF651B0025ADB2AE422F
:102C700028BF2E46002E4ED1304605B0BDE8F08F5D
:102C8000A64209D32BB9C188361BC1F30E0101FB43
:102C900006992F462646EDE7AF424FEA440136BF7C
:102CA0004A1B7A1BD21992B232448A42E2DBA21B3F
:102CB00092B229462046FFF7DBFE0746DAE7AEEB85
:102CC00004001FFA80FEA645F9D2B8F80620D8F80D
:102CD0000000A4EB0E05341BC2F30E0174441FFA6E
:102CE00085FC14FB01F415FB01F5012B0A46ADB27E
:102CF000A4B201FB0E001AD066450ED872434946B5
:102D000001F040FAB8F8040032463946FFF7B0FE49
:102D1000A8F80800B0E7BE46D5E72A46494601F0C4
:102D200031FAD8F80000224609EB0501E8E76645CC
:102D300006D816FB01F292B24946FFF76AFFE1E7B7
:102D400025F0030B1FFA8BFB5A4649460190FFF70B
:102D500060FF15F003051FD00198D9F800300393E8
:102D6000C5F1040A1FFA8AFAA2452A4603A9584463
:102D700028BFA24601F006FAD8F8003003A952464F
:102D80002944184601F0FEF9A4EB0A04A4B2504409
:102D9000002CB7D02246CFE7D8F80000F8E7B2F50C
:102DA000004F0DD882809DF800200160C3F30E0310
:102DB00043EAC233C380002343810381012070476B
:102DC000002070470389428981889BB292B2934266
:102DD00036BFC2EB41029B1A9B1898B2884228BFAB
:102DE000084670470289438992B29BB2D31A58426F
:102DF0005841704703894289818892B29BB29342BD
:102E000036BFC2EB41029B1A9B189BB299428CBF02
:102E10000020012070478288038940899BB280B2DC
:102E2000834236BFC0EB4200181AC01880B28242FB
:102E300086BF101A80B2002070470289438910B5FE
:102E40009BB2044692B2FFF71FFE6189034682B22D
:102E500089B2A088FFF70CFE6081184610BD73B5DB
:102E6000038945890026ADB20446CDE900569BB2E0
:102E7000FFF746FE61890346024689B2A088FFF744
:102E8000F7FD6081184602B070BD37B50589019124
:102E90000446FFF7AFFFADB2019910B1E079C00968
:102EA00012D0A2882B469A4210D9E2882068C2F339
:102EB0000E0202FB030001F065F9A08801222946F9
:102EC000FFF7D6FD2081012003B030BD9B1A9BB2D5
:102ED000E9E712B10023FFF7B0BE104670470023A8
:102EE0004381038101207047C37961F3C713C37124
:102EF000012070470A46018908B589B203468088D7
:102F0000FFF7B6FD188108BD0A46418908B589B2A8
:102F100003468088FFF7ACFD588108BD70B5048971
:102F200043898588A4B29BB29C4236BFC3EB45025D
:102F3000E21A121992B2954206D2A54294BF631BBF
:102F40002B199BB243812A462AB90A604A608A60DB
:102F500070BD641BA4B2A542FBD99D420AD900688A
:102F6000A34200EB03064E6007D200230A804B8089
:102F70008B60EDE75B1B9BB2EFE7521BEC1A13442F
:102F80000C804B808860E3E70389428970B59BB26F
:102F900092B28588934236BFC2EB45049C1AE4186E
:102FA000A4B2A54206D800230B604B608B6070BDB5
:102FB0005B1B9BB29D42FBD995420AD900689A429D
:102FC00000EB03064E6007D9D31A0B8000234B8019
:102FD000ECE7521B92B2EFE7ED1A1B1B0D804B8002
:102FE0008860E4E770B500F1100504462846FFF755
:102FF00012FF3F2817D9E1780020FFF793F890B12E
:103000002846FFF708FF3F28E17807D904F1A80216
:103010004023BDE870400020FFF7A0B8BDE8704035
:103020000020FFF78DB870BD2DE9F0410446FEF792
:1030300049FF10B90020BDE8F081FEF74BFF0646BE
:103040000028F7D14FF49471164D4C4304F11C083D
:10305000A8444046FFF7B6FE0028EBD02F193046B3
:10306000B978FFF75FF80028E4D0E8342544294612
:1030700040224046FFF7F3FEB978044668B10346A4
:103080002A463046FFF76AF848B94FF0E023D3F8F4
:10309000F03DDB07CED500BECDE7FFF751F8204667
:1030A000C9E700BF740B002070B50B4C4FF494734C
:1030B00003FB00441C3492B205462046FFF709FF8B
:1030C00006462046FFF77EFE3F2802D92846FFF736
:1030D000ABFF304670BD00BF740B002037B5124CFB
:1030E0004FF4947200212046FFF75ADFFF236371EB
:1030F0004FF44243E3800823012523730023009308
:1031000004F128012B46402204F110002581FFF72D
:1031100046FE00952B46402204F1680104F11C0094
:10312000FFF73DFE03B030BD740B002010B5094C15
:1031300000232360237104F110001C34FFF7CFFE3D
:103140002046FFF7CCFE20460121BDE81040FFF7E6
:10315000CBBE00BF740B0020F7B54B79022B06469F
:1031600003D00025284603B0F0BD8B79022BF8D19F
:10317000204FBB787BBB8B783B700C7809250C44C7
:1031800003E023781D44ADB21C446378242B1BD18B
:103190009542F6D96378042B12D163790A2B0FD1AB
:1031A000154B277801930133009302231A46E11946
:1031B0003046FEF781FF70B10E3517FA85F5ADB2D6
:1031C0000C48FFF70FFFCDE7052BE3D12146304632
:1031D000FEF74EFF38B94FF0E023D3F8F03DDB07A0
:1031E000BFD500BEBDE7A3787B7023781D44ADB288
:1031F0001C44CFE7740B0020760B00200B461146D1
:10320000127802F06002202A70B550D1294E0A7956
:103210004D79347842EA0522944248D14A78203ADE
:10322000032A44D8DFE802F002141734012B05D139
:10323000214A0723FFF760FB012070BD032BFBD160
:103240001E4B002BF8D01C490020AFF30080F3E7A1
:10325000012BF1D1ECE7012B02D1FFF739FBEBE7B2
:10326000032BE9D18C78CD78154844EA052504F084
:10327000010484F001013571FFF736FE114B002B7C
:10328000DAD0C5F340022146002000F073FDD3E7F9
:10329000012BE2D0032BCFD10B4B002BCCD08B7862
:1032A000C978002043EA0121AFF30080C4E7002081
:1032B000C3E700BF740B00207A0B00200000000061
:1032C000900B0020753D8000000000002DE9F347C1
:1032D000374D1C46EB788B4207460E4607D0AB783D
:1032E0008B4258D1AB78B34232D001245CE0A2B219
:1032F00005F1A80105F11000FFF7EBFD2D4B2BB9EF
:103300002D4BEBB92A48FFF76DFEEBE76B79FF2BEE
:10331000F6D005F1A8094FF0000805F1100AA04504
:10332000EED019F8013B6A799A4206D15046FFF770
:1033300059FD10B96979AFF3008008F10108EEE793
:103340001E48FFF74FFD0028DCD100F029FDD9E72A
:103350001B4B13B10020AFF300800020FFF764FE89
:103360000028C2D11748FFF72DFD0028BDD1002C41
:10337000BBD014F03F03B8D1A97801933846FEF7CB
:10338000D1FE019B04460028AFD0A9781A463846E2
:10339000FEF7E4FE08E04FF0E023D3F8F04D14F020
:1033A000010401D000BE0024204602B0BDE8F08731
:1033B000740B002000000000A13D8000840B002061
:1033C00000000000900B002030B4104B02249A6BD8
:1033D00083F82C10996883F8304093F83C408A1A9F
:1033E0009A6224B942F205059D8783F83E4051B1A7
:1033F0004AB11A7BD20930BC14BF93F82E1093F84F
:103400002F10FEF7EDBE30BC704700BF9C0E0020B1
:1034100038B5154B154C054673B1607B00F00EFEB8
:1034200050B942F2077384F83E00A3872846012171
:10343000BDE83840FFF7C8BFA26BA36894F82F100F
:103440009B1AB3F5007F28BF4FF40073084A9BB264
:103450002846FEF783FE30B94FF0E023D3F8F03D65
:10346000DB0700D500BE38BD3D4080009C0E00202B
:103470009C0C002070B52C4CE28AA36852BA92B220
:1034800086B0054612B1B3FBF2F292B2A07C617C29
:1034900041EA0021E07C41EA0041207D41EA0061EF
:1034A000A06BB0FBF2F61B1AB3F5007F28BF4FF4F8
:1034B000007309BA009302FB16021C4B607B314477
:1034C00000F0AEFD00280CDA43F60223A3870121A9
:1034D0000023284684F83E3006B0BDE87040FFF770
:1034E00073BF94F82E100FD10390049007238DF82A
:1034F00010100590014603A88DF80C508DF80D3082
:10350000FEF740FD06B070BD83B2084A2846FEF7BC
:1035100025FE0028F6D14FF0E023D3F8F03DDB077D
:10352000F0D500BEEEE700BF9C0E00209C0C0020F2
:10353000417A037AC28A43EA0123817A43EA01434A
:10354000C17A52BA53EA016392B204D1002A0CBF85
:10355000002002207047C17B282904D1017BC909C2
:1035600006D1022070472A2902D1017BC909F8D16E
:1035700022B1934234BF02200020704701207047DF
:10358000044880F83C1080F83D2080F83E3001204F
:10359000704700BF9C0E0020024840220021FFF728
:1035A000FF9C00BF9C0E0020024840220021FFF734
:1035B000F79C00BF9C0E002073B54B79082B054685
:1035C00002D0002002B070BD8B79062BF9D1CB79E7
:1035D000502BF6D1162A07D84FF0E023D3F8F03D50
:1035E000D907EED500BEECE7164C8B7884F82D3069
:1035F00004F12E030E78019304F12F0300930223AC
:103600001A463144FEF758FD38B94FF0E023D3F89D
:10361000F03DDA07D5D500BED4E7002384F830307A
:1036200094F82F101F2322462846FEF797FD30B945
:103630004FF0E023D3F8F03DDB0700D500BE1720A4
:10364000C0E700BF9C0E002001297FB50646154645
:1036500015D1137803F07F02022A49D16C78012C2E
:1036600046D1AA78E97852EA012241D12A79424D1D
:1036700095F83030042B04D11146FEF7B1FD01203E
:103680001AE095F82E10914218D1022BF7D1AA6BAF
:10369000AB689B1AAB62032385F8303005F120023A
:1036A0000D23FEF75BFD0028E9D14FF0E023D3F8AE
:1036B000F03DDB075DD500BE04B070BD95F82F105E
:1036C0009142DCD1002BDAD10191FEF77BFD01990B
:1036D0000028D4D13046FEF7BFFD0028CFD100230B
:1036E00085F83030244A95F82F101F233046D8E74C
:1036F00003F06003202B3CD16B78FE2B18D0FF2BFE
:1037000037D1AB78EA7853EA022332D1AB79EA7940
:1037100053EA02232DD1184A29469387304682F86E
:1037200030305363936382F83E30FFF7D1F8A6E759
:10373000AB78EA7853EA02231BD1AB79EA7943EA02
:103740000223012B15D18DF80F300C4B1BB1AFF3B9
:1037500000808DF80F009DF80F3053B1013B8DF8BC
:103760000F300DF10F02012329463046FFF7C4F850
:1037700085E70020A0E700BF9C0E002000000000AD
:103780002DE9F043B04C94F83080B8F1010F8FB0C0
:1037900005461E4600F0A281B8F1030F00F01B821F
:1037A000B8F1000F42D194F82F308B4201D00120A4
:1037B00013E01F2E03D12268A44B9A4210D094F834
:1037C0002E100423284684F83030FEF709FD94F8C3
:1037D0002F102846FEF704FD00200FB0BDE8F0834F
:1037E0009B4BE67B236263686362012384F830307D
:1037F00006F0FD03A768C4F82880282B84F82C80E5
:103800006763C4F838802BD12046FFF791FE01464C
:1038100018B12846FFF7D8FD08E0002F00F05881C6
:10382000282E40F0B5812846FFF724FE94F830306A
:10383000022BBCD194F82E102846FEF70DFD00286F
:10384000B5D1A368A26B94F82E10934240F2EC819C
:10385000207BC00900F0E8812846FEF7C1FCA6E7FE
:10386000B7B1237BDB0913D1B7F5007F01D9012163
:10387000CFE7784ABBB22846FEF770FC0028D5D1C6
:103880004FF0E023D3F8F03DDA07A5D500BEA4E75A
:10389000252E94F80D8008D8192E14D8032E00F088
:1038A000E180122E00F0978066B394F83C30002B34
:1038B000DDD1A38E674A6849607B00F0CFFB00280A
:1038C00080F2FF80D3E71A3E0B2EEED801A353F807
:1038D00026F000BF273A800027398000AB388000EF
:1038E000AB388000AB388000AB388000AB3880004C
:1038F000AB388000AB3880008F398000AB38800057
:1039000043398000404600F069FB002840F0DC802D
:1039100094F83C30002BC8D143F60223A387002340
:1039200084F83E30C1E74D4B002B00F0CD80E17CA8
:103930004046C1F3400301F00102090900F066FBB3
:10394000E3E704AA05A9404600F058FB059B13B124
:10395000BDF810203AB994F83C30002BA5D143F6BD
:103960000222A287DCE73B49013B1BBA12BA0B607B
:103970004A600820A368002B3FF479AF834228BF38
:1039800003466363334A94F82E109BB273E705AE87
:10399000002305930DF10E027360B36004A9404645
:1039A00000F02CFB049A002AD5D0BDF80E30002B75
:1039B000D1D012BA5BBA082106920222ADF81E30AD
:1039C0008DF817108DF81C2096E80700214B83E82E
:1039D00007000C20CEE700230593069380238DF883
:1039E000153002234FF020368DF816308DF8173041
:1039F00010221F23202109A88DF818300796089659
:103A0000FFF7CEDA0D960DAB09AA07A9404605AE21
:103A100000F0B2FA0FCE0F4F0FC70FCE0FC73368AB
:103A20003B602420A6E70E4B63B1404600F006FB46
:103A300080F00100C0B2074BC00540F003001860E1
:103A4000042097E70120F3E79C0E002055534243E2
:103A5000555342539C0C0020AB0E00200D408000BB
:103A60003D40800094F83C6094F83E7094F83D909E
:103A70001222002105A8FFF793DAF0238DF8143005
:103A800006F00F060A238DF816608DF821708DF868
:103A90001B308DF8209005AE0FCE6A4F0FC73368EC
:103AA0003B80694BC3B14FF40072A7F1100140464F
:103AB000AFF3008000239842A38784F83E30FFF6DE
:103AC000F4AE00287FF456AFA368002B7FF4CFAE8E
:103AD000022384F83030A9E61220EBE7E37BA26BE7
:103AE000282B05D1636B32449A42A263F0D29AE646
:103AF0002A2B51D1E08A40BA80B218B1A368B3FB37
:103B0000F0F080B2A37C617C4E4FB2FBF0FC41EA46
:103B10000321E37C009641EA0341237D41EA0361EE
:103B200009BA00FB1C223B46607B614400F088FA26
:103B3000002809DAA36B3344A36343F60223A38767
:103B4000002384F83E3092E686421BD9361A40B1F3
:103B5000A16B11FA80F1A16332463918384600F0A2
:103B60001FFB002194F82F300591072205A806912C
:103B70008DF814508DF815208DF818300796FEF743
:103B800001FA53E6A36B1E44636BA6639E429FD269
:103B90002846FFF73DFC49E6237B3244DB09A2635C
:103BA0000CD1A38E274A607B04F10F0100F056FA76
:103BB000002803DA41462846FFF706FCA26B636B38
:103BC0009A4285D24FF0E023D3F8F03DDB077FF532
:103BD0002DAE00BE2AE694F82E308B427FF426AE3E
:103BE0000D2E7FF423AEE37B282B09D02A2B14D093
:103BF000164B53B1607B04F10F01AFF3008004E07A
:103C0000134B13B1607BAFF30080002384F8303096
:103C1000104A94F82F101F232DE60F4B002BF4D0E1
:103C2000607BAFF30080F0E79B1AA362032384F864
:103C300030300A4A0D232846FEF790FA00287FF418
:103C4000B6AD1DE69C0C0020000000000000000046
:103C5000000000009C0E002000000000BC0E0020B0
:103C6000FEE70000FCF788FF0748084A0849121AD7
:103C70009210FCF73DDA0748074A0849121A9210D9
:103C8000FCF736DAFCF78CFD00000020EC00002089
:103C90000003800034010020C4040020EC038000F5
:103CA00008B5FCF78DFF0020FCF73EFF1F20FCF756
:103CB0009BFE1E20FCF798FE1D20FCF795FE1F20A2
:103CC000FCF7C0FE1E20FCF7BDFEBDE808401D202D
:103CD000FCF7B8BE064B1B78022B024607D8C3F18F
:103CE0001F03D8B20AB1FCF7BBBEFCF7ABBE7047EE
:103CF000DC0E002001F01CBB08B50020FDF7DAF94E
:103D00000028D8BF4FF0FF3008BD0000024B4FF431
:103D10007A721A60704700BF44040020014BFA22F7
:103D20001A60704744040020024B40F6C4121A6027
:103D3000704700BF44040020024B4FF47A721A60AF
:103D4000704700BF44040020492F4E4F5F54414745
:103D50003A636F6E6E656374656400492F4E4F5F02
:103D60005441473A646973636F6E6E65637465644A
:103D700000000000064B10B51B680C4629B1054930
:103D800001209847044B1C7010BD0449F8E700BFA0
:103D9000E0040020483D8000E80E00205B3D8000EC
:103DA0007047000007B53123ADF80430FFF7A2FFDC
:103DB0000B4A1368C01AB0F57A7F0DD303F57A73F6
:103DC0001360084B1B783BB1022201A90020FFF7CA
:103DD0006BF90020FFF728F903B05DF804FB00BF82
:103DE000E00E0020E80E002010B5FFF783FF0A4A1E
:103DF0000A4913680968C01A88420CD3084C0B445E
:103E00001360084B207802221A70FFF763FF2378B3
:103E100083F00103237010BDE40E00204404002051
:103E2000DD0E0020DC0E002008B5FFF739FF002072
:103E3000FEF760F800214FF0FF30FEF71BFAFFF7A6
:103E4000D3FFFFF7AFFFF5E700487047F63E80006D
:103E500000487047083F800010B570B9134B1448F4
:103E60001968022200F08EF901230133DBB21148F8
:103E70005B0043F44073038010BD052814D80B4B3E
:103E800053F82040204600F0DBF9C3B21F2B28BFB7
:103E90001F23084A2046E118884202F10202E4D0BA
:103EA00010F8014B1480F7E70020E5E748040020F4
:103EB000EC0E0020EA0E002054696E795553420042
:103EC00054696E79555342204465766963650031C3
:103ED00032333435363738393031320054696E79FF
:103EE000555342204344430054696E795553422050
:103EF0004D534300090412010002EF020140FECAC3
:103F00000340000101020301090262000301008075
:103F100032080B0002020200000904000001020244
:103F200000040524002001052401000104240202EC
:103F3000052406000107058103080010090401009B
:103F4000020A000000070502024000000705820285
:103F5000400000090402000208065005070503029C
:103F6000400000070583024000004D617373205339
:103F7000746F72616765000070B5154688B00822DD
:103F80000E460DEB020012491C4600F0FBF81149E9
:103F90000D2204A800F0F6F80F4B019302A800F0E0
:103FA0004FF902A90246304600F0ECF804A800F0F0
:103FB00047F904A90246284600F0E4F801A800F0F9
:103FC0003FF901A90246204600F0DCF808B070BDB8
:103FD000B83E80006A3F8000312E300008B5064BA5
:103FE0001B7833B100233A220221FFF7C9FA0020DF
:103FF00008BD0120FCE700BF2A0F00204FF44873E2
:104000000B604FF400731380704700001BB112B9AE
:10401000024B01221A700120704700BF2A0F0020B6
:1040200010B5B1F5487F029C184604D2620A00F030
:104030001FF8204610BD4FF0FF30FBE7012070470E
:1040400010B5B1F5487F029C184604D2620A00F010
:104050002FF8204610BD4FF0FF30FBE708B52022B7
:1040600000230521FFF78CFA4FF0FF3008BD000058
:104070002DE9F0410746164672B6DFF83080A031D0
:104080004C020025B54207EB452103D162B6002062
:10409000BDE8F0814445F9D820464FF4007201F0A4
:1040A0004FF9013504F50074ECE700BFFFFD070090
:1040B0002DE9F34106460D4672B6DFF8508001F156
:1040C000A00464028F18BD4204D162B6002002B081
:1040D000BDE8F0814445F8D8204601F035F9314675
:1040E0004FF48072204601F01FF906F5807604F542
:1040F0008070019001F028F901984FF480723146E8
:1041000001F012F9013504F50074DCE7FFFD07004A
:1041100008B5074B044613B10021AFF30080054BEF
:104120001868836A03B19847204601F0F7F800BF8A
:1041300000000000384180006404002070B50D4D7F
:104140000D4C641BA4100026A64209D10B4D0C4C4B
:10415000FCF716FB641BA4100026A64205D170BD17
:1041600055F8043B98470136EEE755F8043B98476D
:104170000136F2E70000000000000000000000002F
:10418000000000000A44914200F1FF3300D1704763
:1041900010B511F8014B03F8014F9142F9D110BD50
:1041A000884210B501EB020402D98442234607D8A5
:1041B000431EA14208D011F8012B03F8012FF8E7A4
:1041C000024401468A4200D110BD13F8014D02F8A5
:1041D000014DF7E70FB40A4B13B51C6824B1A3696E
:1041E00013B9204600F0A4F805AB049AA168019326
:1041F000204600F045FA02B0BDE8104004B0704718
:1042000060040020094B13B51C68014634B1A36952
:1042100023B90190204600F08BF80199A26820464E
:1042200002B0BDE8104000F0FFBC00BF60040020F9
:10423000034611F8012B03F8012B002AF9D170472E
:10424000034613F8012B002AFBD1181A01387047D6
:1042500013B50B4609490C68024644B1A16931B94E
:10426000CDE90003204600F063F8DDE90023A168F2
:10427000204602B0BDE8104000F002BA6004002001
:10428000002310B50446C0E90033C0E9043383605D
:1042900081814366C2818361194608225C30FEF742
:1042A0007FDE054B6362054BA362054BE362054B62
:1042B0002462236310BD00BFD94C8000FB4C8000FA
:1042C000334D8000574D8000014900F0DFB800BF3A
:1042D0003150800070B568224D1E55430E4605F1E1
:1042E000740100F041F9044640B10021C0E9001614
:1042F0000C30A06005F16802FEF752DE204670BD6A
:10430000014800F0E3B800BF2C0F0020014800F086
:10431000DEB800BF2C0F0020014800F0D7B800BF66
:104320002D0F0020014800F0D2B800BF2D0F002053
:1043300010B50446FFF7F0FFA3691BB1BDE81040BC
:10434000FFF7F0BFC4E912332365134B134A1B6810
:10435000A262A34204BF0123A361204600F020F81B
:104360006060204600F01CF8A060204600F018F8BD
:104370000022E06004216068FFF782FFA06801224C
:104380000921FFF77DFFE06802221221FFF778FF85
:104390000123A361D2E700BF38418000C9428000F9
:1043A000F8B50746FFF7ACFF1E4B1E68B36913B99B
:1043B0003046FFF7BDFF4836D6E90134013B03D54F
:1043C00033680BB33668F7E7B4F90C50D5B9164B20
:1043D000E36004F15800656600F077F8FFF796FF98
:1043E000C4E90155C4E904552560A56108222946A0
:1043F00004F15C00FEF7D4DDC4E90D55C4E91255A3
:104400002046F8BD6834D9E704213846FFF762FF3B
:10441000044630600028D5D1FFF778FF0C233B60BD
:10442000EEE700BF384180000100FFFF0000000000
:10443000000000000000000000000000000000007C
:10444000000000000000000000000000000000006C
:10445000000000000000000000000000000000005C
:10446000000000000000000000000000000000004C
:10447000000000000000000000000000000000003C
:104480000000000000000000000000002DE9F843DB
:104490000646884600F148040027D4E90195B9F1A1
:1044A000010905D52468002CF7D13846BDE8F8830A
:1044B000AB89012B07D9B5F90E30013303D029465A
:1044C0003046C04707436835E9E770477047704793
:1044D00037B5002944D051F8043C0190002BA1F1DC
:1044E0000404B8BFE41800F0ABFE1E4A019813683C
:1044F00033B96360146003B0BDE8304000F0A6BE7D
:10450000A34208D9256861198B4201BF19685B680D
:1045100049192160EDE71A465B680BB1A342FAD94D
:1045200011685518A5420BD1246821445418A342A0
:104530001160E0D11C685B68536021441160DAE7C8
:1045400002D90C230360D6E7256861198B4204BFAA
:1045500019685B68636004BF491921605460CAE749
:1045600003B030BD300F0020F8B5CD1C25F0030599
:1045700008350C2D38BF0C25002D064601DBA9425D
:1045800003D90C2333600020F8BD00F059FE214907
:104590000A6814469CB9204F3B6823B9214630462F
:1045A00000F08AFB38602946304600F085FB431C4A
:1045B00023D10C233360304600F048FEE3E7236844
:1045C0005B1B17D40B2B03D923601C44256004E02C
:1045D0006368A2420CBF0B605360304600F036FEA9
:1045E00004F10B00231D20F00700C21ACCD01B1AC7
:1045F000A350C9E722466468CCE7C41C24F0030436
:10460000A042E3D0211A304600F056FB0130DDD144
:10461000CFE700BF300F0020340F00209368013B2C
:10462000002B10B4936008DA9469A34201DB0A29D5
:1046300003D15DF8044B00F093BB1368581C106065
:10464000197008465DF8044B7047F8B506460F46EA
:104650001446D518AC4201D1002007E014F8011B24
:104660003A463046FFF7DAFF431CF3D1F8BD232D5D
:10467000302B2000686C4C0065666745464700009B
:104680002DE9F04F0D469DB014469846064618B1E8
:1046900083690BB9FFF74CFE894B9D421BD17568AE
:1046A0006B6ED90705D4AB899A0502D4A86DFFF7C4
:1046B0000DFFAB891B0701D52B69EBB929463046A5
:1046C00000F0B2FBC0B16B6EDC070ED54FF0FF30CF
:1046D0001DB0BDE8F08F7B4B9D4201D1B568DFE78F
:1046E000794B9D4208BFF568DAE7AB899805EDD4B0
:1046F000A86DFFF7ECFEE9E70023099320238DF86E
:104700002930CDF80C803023DFF8C0818DF82A30B5
:104710004FF0010923469A4613F8012B0AB1252AC6
:10472000F9D1BAEB040B0BD05B4622462946304642
:10473000FFF78BFF013000F0AA80099A5A440992D2
:104740009AF80030002B00F0A28000234FF0FF32D7
:10475000CDE905230AF1010A049307938DF853303C
:104760001A935446052214F8011B584800F018FD0E
:10477000049AD8B9D10644BF20238DF853301307CB
:1047800044BF2B238DF853309AF800302A2B15D0D4
:10479000079A544600204FF00A0C214611F8013BBD
:1047A000303B092B4ED9B0B1079214E0A0EB0803BF
:1047B00009FA03F313430493A246D2E7039B191D9E
:1047C0001B680391002BBBBF5B4242F002020793C0
:1047D0000793B8BF049223782E2B0CD163782A2B31
:1047E00035D1039B1A1D1B680392002BB8BF4FF0F5
:1047F000FF3302340593DFF8E4A02178032250460A
:1048000000F0CEFC40B14023A0EB0A0003FA00F018
:10481000049B03430134049314F8011B2C488DF8C6
:104820002810062200F0BCFC00283FD0294B1BBBFF
:10483000039B073323F0070308330393099B3B448F
:10484000099367E70CFB02320C460120A5E7002321
:104850000134059319464FF00A0C204610F8012B3D
:10486000303A092A03D9002BC5D00591C3E70CFBC8
:10487000012104460123F0E703AB00932A46164BBF
:1048800004A93046AFF300800746781CD6D16B6E82
:10489000D90705D4AB899A0502D4A86DFFF717FE96
:1048A000AB895B063FF512AF099811E703AB0093A4
:1048B0002A46094B04A9304600F090F8E4E700BF0F
:1048C0004C4480006C4480002C4480006E46800084
:1048D00078468000000000004B468000744680004F
:1048E0002DE9F047164699468A680B69DDF8208065
:1048F0009342B8BF1346336091F8432007460C46F5
:104900000AB1013333602368990642BF336802332A
:104910003360256815F0060506D104F1190AE3682D
:1049200032689B1AAB4226DC94F84320131E22689F
:1049300018BF012392062BD404F14302494638469E
:10494000C04701301ED02368E568326803F00603D3
:10495000042B08BFAD1AA36822690CBF25EAE575D0
:1049600000259342C4BF9B1AED1800261A34B542A5
:104970001AD1002008E00123524649463846C04774
:10498000013003D14FF0FF30BDE8F0870135C6E7B5
:10499000E1185A1C302081F84300224494F8451055
:1049A00082F843100233C7E70123224649463846BE
:1049B000C0470130E6D00136D9E7303132333435E3
:1049C000363738394142434445460030313233347A
:1049D0003536373839616263646566002DE9FF4713
:1049E0000F7E0C9D782F914680460C469A4601F129
:1049F000430207D8622F0AD8002F00F0D880582F22
:104A000000F0A38004F1420584F842703AE0A7F177
:104A10006303152BF6D801A151F823F0754A8000E5
:104A2000894A8000054A8000054A8000054A8000C6
:104A3000054A8000894A8000054A8000054A8000B6
:104A4000054A8000054A8000954B8000B94A8000E5
:104A5000774B8000054A8000054A8000B74B8000F4
:104A6000054A8000B94A8000054A8000054A800056
:104A70007F4B80002B681A1D1B682A6004F14205D9
:104A800084F842300123A3E020682968060601F17A
:104A900004030AD50E682B60002E03DA2D2376421C
:104AA00084F843305E480A2319E00E682B6010F04A
:104AB000400F18BF36B2EFE72B682068191D296038
:104AC000010601D51E6802E04606FBD51E88544843
:104AD0006F2F0CBF08230A23002184F84310656858
:104AE000A560002DA2BF216821F0040121600EB94C
:104AF000002D4DD01546B6FBF3F103FB1167C75DE2
:104B000005F8017D3746BB420E46F4D9082B0BD180
:104B10002368DE0708D5236961689942DEBF302328
:104B200005F8013C05F1FF35521B2261CDF800A0CC
:104B30004B4603AA21464046FFF7D2FE01304CD136
:104B40004FF0FF3004B0BDE8F087354881F845707C
:104B50002968236851F8046B29601D0614D5DF0706
:104B600044BF43F0200323601EB9236823F02003D1
:104B700023601023B0E7236843F0200323607823E9
:104B8000284884F84530E3E7590648BFB6B2E6E75F
:104B90001546BBE72B6826686169181D2860350635
:104BA0001B6801D5196002E07006FBD5198000234F
:104BB00023611546BAE72B681A1D2A601D686268D2
:104BC0000021284600F0ECFA08B1401B60606368E1
:104BD0002361002384F84330A8E723692A46494625
:104BE0004046D0470130ABD023689B0713D4E06820
:104BF000039B9842B8BF1846A4E7012332464946B2
:104C00004046D04701309BD00135E36803995B1AD9
:104C1000AB42F2DCEBE7002504F11906F5E700BF33
:104C2000BA498000CB49800070B50D46144606464F
:104C300018B183690BB9FFF77BFB1C4B9C4224D155
:104C40007468636ED80705D4A389990502D4A06D52
:104C5000FFF73CFCA368013B002BA36005DAA269C7
:104C600093421CDBEBB20A2B19D023685A1C22603A
:104C70001D70EDB2636EDA0705D4A3899B0502D4DB
:104C8000A06DFFF724FC284670BD094B9C4201D162
:104C9000B468D6E7074B9C4208BFF468D1E72946C1
:104CA0002246304600F05CF80546E3E74C448000BD
:104CB0006C4480002C44800038B5064D0023044627
:104CC00008462B6000F01CFB431C02D12B6803B18B
:104CD000236038BD380F002010B50C46B1F90E1016
:104CE00000F0BAFA0028ABBF636DA3891B1823F448
:104CF0008053ACBF6365A38110BD2DE9F0411F4611
:104D00008B89DB0505460C46164605D5B1F90E1014
:104D10000223002200F0C8F9A389B4F90E1023F48D
:104D20008053A38132463B462846BDE8F04100F05F
:104D300069B810B50C46B1F90E1000F0B5F9431C76
:104D4000A38915BF606523F4805343F48053A38186
:104D500018BFA38110BDB1F90E1000F0D3B8000048
:104D6000F8B50E461446054618B183690BB9FFF72E
:104D7000DFFA214B9C422BD16C68A369A360A38905
:104D80001A072FD523696BB323692068C01A63699A
:104D9000F6B28342374604DC2146284600F048F943
:104DA00030BBA368013BA36023685A1C22601E70BD
:104DB00063690130834204D0A389DB0706D50A2E3C
:104DC00004D12146284600F033F988B93846F8BDA9
:104DD0000A4B9C4201D1AC68CFE7094B9C4208BF0B
:104DE000EC68CAE72146284600F01EF80028CBD020
:104DF0004FF0FF37EAE700BF4C4480006C4480006E
:104E00002C44800038B5074D044608461146002260
:104E10002A601A46FCF754F8431C02D12B6803B1F0
:104E2000236038BD380F0020324B70B51D68064630
:104E30000C4625B1AB6913B92846FFF779FA2E4B1A
:104E40009C420FD16C68A389B4F90C2019072CD4AB
:104E5000DD0611D40923336042F04003A3814FF0F3
:104E6000FF303EE0254B9C4201D1AC68EBE7244B80
:104E70009C4208BFEC68E6E7580712D5616B41B168
:104E800004F14403994202D03046FFF721FB00238E
:104E90006363A38923F02403A38100236360236950
:104EA0002360A38943F00803A38123694BB9A38935
:104EB00003F42073B3F5007F03D02146304600F0A1
:104EC0002BF9A089B4F90C2010F001030AD00023BB
:104ED000A36063695B42A361236943B910F080005A
:104EE000BAD170BD810758BF6369A360F4E70020A1
:104EF000F7E700BF600400204C4480006C44800051
:104F00002C44800038B5064D0023044608462B602B
:104F100000F0D6F9431C02D12B6803B1236038BDE1
:104F2000380F00208A892DE9F041054610070C460C
:104F300058D44B68002B05DC0B6C002B02DC0020E6
:104F4000BDE8F081E66A002EF9D0002312F4805209
:104F50002F682B6032D0606DA3895A0705D563682E
:104F6000C01A636B0BB1236CC01A00230246E66AB9
:104F7000216A2846B047431CA38906D129681D2908
:104F80002CD82A4ACA40D60728D500226260D90404
:104F90002269226004D5421C01D12B6803B96065E7
:104FA000616B2F600029CAD004F14403994202D0FA
:104FB0002846FFF78DFA00206063C1E7216A0123CC
:104FC0002846B047411CC7D12B68002BC4D01D2BED
:104FD00001D0162B01D12F60B1E7A38943F0400324
:104FE000A381ADE70F69002FA9D093070E6808BF12
:104FF0004B690F6018BF0023A6EB07088B60B8F160
:10500000000F9CDD216AA66A43463A462846B0470F
:10501000002806DCA38943F04003A3814FF0FF3052
:105020008EE70744A8EB0008E9E700BF0100402035
:1050300038B50B6905460C4613B90025284638BD1E
:1050400018B183690BB9FFF773F9144B9C421BD15C
:105050006C68B4F90C30002BEFD0626ED00704D42A
:10506000990502D4A06DFFF731FA28462146FFF7D3
:1050700059FF636EDA070546E0D4A3899B05DDD4AA
:10508000A06DFFF724FAD9E7054B9C4201D1AC682B
:10509000DFE7044B9C4208BFEC68DAE74C44800031
:1050A0006C4480002C44800038B5074D0446084607
:1050B000114600222A601A4600F01AF9431C02D158
:1050C0002B6803B1236038BD380F002070B50E4641
:1050D000B1F90E10002996B014461D4608DAB6F94B
:1050E0000C3000222A601A0610D44FF480630EE0C0
:1050F0006A4600F0C3F80028F1DB019A02F470421E
:10510000A2F500535A425A412A60EEE7402300209C
:10511000236016B070BD00008B8973B59D070646ED
:105120000C4607D504F14703236023610123636123
:1051300002B070BD01AB6A46FFF7C8FF0099054693
:105140003046FFF711FA48B9B4F90C309A05EFD49C
:1051500023F0030343F00203A381E3E70D4BB362A3
:10516000A389206043F08003A381009B6361019BBE
:1051700020615BB1B4F90E10304600F091F828B10F
:10518000A38923F0030343F00103A381A08905430E
:10519000A581CDE7C94280000000000000000000AA
:1051A00001F0FF01102A2BDB10F0070F08D010F8D8
:1051B000013B013A8B422DD010F0070F42B3F6D1DC
:1051C000F0B441EA012141EA014122F007047FF0F5
:1051D00000070023F0E80256083C85EA010586EA4C
:1051E000010685FA47F5A3FA87F586FA47F6A5FA88
:1051F00087F68EB9EED1F0BC01F0FF0102F0070294
:1052000032B110F8013B013A83EA010313B1F8D13E
:105210000020704701387047002D06BF354603381F
:10522000073815F0010F07D1013015F4807F02BF58
:10523000013015F4C03F0130F0BC0138704700BFA9
:105240000148FFF743B900BF2B0F00200148FFF7CB
:105250003EB900BF2B0F002038B5074D0446084665
:10526000114600222A601A46FEF746FD431C02D171
:105270002B6803B1236038BD380F002038B5074DC7
:1052800000230446084611462B6000F021F8431C19
:1052900002D12B6803B1236038BD00BF380F002056
:1052A00038B5064D0023044608462B6000F018F878
:1052B000431C02D12B6803B1236038BD380F002096
:1052C000024B58221A604FF0FF307047380F002011
:1052D000024B58221A604FF0FF307047380F002001
:1052E000024B58221A600020704700BF380F002080
:1052F000024B58221A604FF0FF307047380F0020E1
:10530000044A05491368002B08BF0B461844106077
:10531000184670473C0F0020400F0020FEE700BFFA
:105320005FF800F0B90100205FF800F049020020AA
:105330005FF800F0B50200205FF800F06101002086
:105340005FF800F0690200205FF800F08902002099
:0853500048B4FF7F01000000DA
:0400000500800780F0
:00000001FF
