:0200000400807A
:1050000044332211FFFFFFFF0000000000000000FA
:105010000000000000000000000000000000000090
:105020000000000000000000000000000000000080
:105030000000000000000000000000000000000070
:105040000000000000000000000000000000000060
:105050000000000000000000000000000000000050
:105060000000000000000000000000000000000040
:105070000000000000000000000000000000000030
:105080000000000000000000000000000000000020
:105090000000000000000000000000000000000010
:1050A0000000000000000000000000000000000000
:1050B00000000000000000000000000000000000F0
:1050C00000000000000000000000000000000000E0
:1050D00000000000000000000000000000000000D0
:1050E00000000000000000000000000000000000C0
:1050F00000000000000000000000000000000000B0
:0200000400807A
:10510000900D0020055580000F5580000D55800042
:1051100011558000135580001555800000000000D7
:105120000000000000000000000000005D230000FF
:1051300019558000000000001B5580005D01002013
:105140001D5580001D5580001D5580001D55800097
:105150001D5580001D5580001D5580001D55800087
:105160001D5580001D5580001D5580001D55800077
:105170001D5580001D5580001D5580001D55800067
:105180001D5580001D5580001D5580001D55800057
:105190001D5580001D5580001D5580001D55800047
:1051A0001D5580001D5580001D5580001D55800037
:1051B0001D5580001D5580001D5580001D55800027
:1051C0001D5580001D5580001D5580001D55800017
:1051D0001D5580001D5580001D5580001D55800007
:1051E0001D5580001D5580001D55800040464946D4
:1051F00052465B46FFB500F013F900F015F830BFDA
:1052000000F0F6F800F00EF8FFBC804689469246A2
:105210009B4600BD40F63C10C2F20000016801311F
:1052200001607047704700007047000010B54DF2F4
:105230002C04C4F20004D4F8BC0080070AD440F265
:105240009950A060322000F038F92068042161F301
:105250001A6020600420C4F20000016841F20602D6
:10526000114321F001010160012044F8040C206881
:10527000472161F3070020604FF238000422C4F296
:1052800000000421C8F2000201600260016010BD4C
:1052900072B6704740F23010C2F2000000787047DA
:1052A00010B5044600F04AF82046812100F00AF9C2
:1052B000BDE81040AFF3008010B586B000F032F8C2
:1052C00070BB00F004F90446FFF7E4FF10B100F0F2
:1052D00065F81FE041F27100C4F20B2000904FF01E
:1052E0006B4001904FF0005002900DF1170001212A
:1052F000ADF80C1060F3051104906846ADF80E107F
:1053000000F0EAF89DF817003C2818BF00F06CF890
:1053100000F058F8012000F00BF8204600F0E1F80A
:1053200006B010BD40F2EC00C2F2000040787047B9
:1053300040F2EC01C2F200014870704710B586B02F
:10534000FFF7F0FF40B300F0C2F8044600F07EF82B
:10535000FFF7A0FFD0B941F20000C4F20B2000908B
:105360000020CDE901000DF117000121ADF80C106E
:1053700060F3051104906846ADF80E1000F0ACF82B
:105380009DF817003C2818BF00F02EF80020FFF70A
:10539000CFFF204600F0A5F806B010BD042041F272
:1053A0007101C4F20000C1F20F11C1600021CBF6FF
:1053B0001031016100214161016841F480510160B7
:1053C00070470000042041F20001C4F20000C4F262
:1053D0000B21C160002101614FF000514161016862
:1053E00041F4805101607047FFF752FFFEE7000073
:1053F00040F23C40C2F20000006880F3088840F2AE
:105400004040C2F20000006880F3098840F2384052
:10541000C2F20000007880F31488BFF36F8F7047EA
:1054200040F23841C2F20001EFF31480087040F2FC
:105430004041C2F20001EFF30980086040F23C41B4
:10544000C2F20001EFF30880086070474DF2DC0003
:10545000C4F2000004E000BF0168490548BF70477E
:105460000168490506D4016849055CBF01685FEA27
:105470004151F1D57047000040F63C10C2F20000E7
:105480000068704781B070B581B014460E1805AD44
:10549000059303E0FFF7F0FF801B08D5002CF9D03F
:1054A00028460095A0470028F4D0002000E0012005
:1054B00001B0BDE8704001B0704742F2793CC0F2E3
:1054C000000C604742F2B73CC0F2000C604742F269
:1054D000DD0CC0F2000C604741F6090CC0F2000C74
:1054E000604742F2E50CC0F2000C6047000000008B
:1054F000DFF80CD000F02AFA00480047ED68800081
:10550000900D00200648804706480047FEE7FEE76A
:10551000FEE7FEE7FEE7FEE7FEE7FEE7FEE7000048
:10552000C1638000F1548000D2B201E000F8012B89
:10553000491EFBD270470022F6E710B513460A4613
:1055400004461946FFF7F0FF204610BD30B50B4664
:10555000014600202022012409E021FA02F59D42A3
:1055600005D303FA02F5491B04FA02F52844151E77
:10557000A2F10102F1DC30BD2DE9F05F054600200B
:1055800092469B4688460646814640241BE02846B4
:1055900041464746224600F0FAF953465A46C01A99
:1055A000914110D311461846224600F0E1F92D1A18
:1055B00067EB01084F4622460120002100F0D8F990
:1055C00017EB00094E41201EA4F10104DFDC484620
:1055D00031462A464346BDE8F09F2DE9FE4F8046FE
:1055E00081EA0300C00F0C46009021F0004123F037
:1055F0000045B8EB0200A94105D24046214690463D
:105600001C460B46024623F00040104347D0270DAE
:10561000C7F30A00C3F30A510290401A01904028D0
:105620006BDAC3F3130040F4801B0098924620B15C
:105630000023D2EB030A63EB0B0B01985946C0F130
:105640004002504600F094F906460D465046594631
:10565000019A00F0ACF910EB08006141002487EAE0
:10566000115284EAE7731A4340D0009A62B3019A58
:10567000012A4FEA075215DC001B61EB02014FF0D3
:10568000004202EA0752CDE90042001C41F58011B8
:1056900032462B4600F0ACF903B0BDE8F08F40462F
:1056A0002146F9E7001B61EB0201001C41F5801364
:1056B00000185B412018A2F5001747EB030140EAF0
:1056C000D570B6196D4111E06D084FEA360645EA0E
:1056D000C0754FEA0752001B61EB0201001C41F547
:1056E000801149084FEA30000019514132462B46DB
:1056F00003B0BDE8F04F00F06CB900980122400003
:105700000023D0EB020263EBE073009821464FEADE
:10571000E074B8EB000061EB0401E9E783F00043BB
:105720005BE781F0004158E72DE9FE4F81EA030471
:1057300004F0004421F0004100944FF0000B23F0EE
:10574000004350EA01045ED052EA03045BD0C3F385
:105750000A54C1F30A552C44A4F2F3340194A0FB7B
:105760000254C1F3130141F48011C3F3130343F452
:10577000801301FB024400FB034E840A970A44EAAB
:10578000815447EA8357A4FB076802958D0A05FBFD
:1057900007854FEA932C04FB0C542705029D4FEA22
:1057A000065847EA1637B5EB08056EEB070C870E6F
:1057B000920E47EA811742EA8312A7FB0201B6EB79
:1057C0000B0164EB00042B0D43EA0C335E1844EB31
:1057D0001C50DA465146E7FB0201C5F313044FEAB9
:1057E0000B3343EA14534FEA0432019C43EA0603A5
:1057F000A4F10C040294009CCDE900B400F0F8F888
:1058000003B0BDE8F08F00200146F9E72DE9F04D27
:1058100081EA030404F0004B21F0004514464FF0E8
:10582000000A23F0004150EA050220D054EA0102A8
:105830001DD0C5F30A570246C5F31303C1F3130085
:10584000C1F30A5640F4801543F48013A7EB060811
:10585000101BD64608F2FD3873EB050002D308F1A1
:10586000010801E092185B41B8F1000F03DA002053
:105870000146BDE8F08D00204FF4801106468446B5
:105880000EE0171B73EB050705D3121B63EB050333
:1058900006434CEA010C49084FEA300092185B417C
:1058A00050EA0107EDD152EA030012D082EA040067
:1058B00083EA0501084305D0101BAB4106D2012243
:1058C000002306E000224FF0004302E06FF00102E7
:1058D00053101AEB06004CEB085110EB0A0041EB99
:1058E0000B01BDE8F04D00F074B8C1F30A52C1F3EA
:1058F000130140F2FF3341F480119A4202DA002092
:105900000146704740F233439A42A2F2334202DC2E
:10591000524200F03CB800F02BB8000030B5041E35
:1059200071F1000404DB4FF00044404264EB0101DC
:10593000141E73F1000405DB1C464FF00043524275
:1059400063EB0403994208BF904230BD064C074DFB
:1059500006E0E06840F0010394E80700984710343F
:10596000AC42F6D3FFF7C8FD40758000807580001B
:10597000202A04DB203A00FA02F10020704791400F
:10598000C2F1200320FA03F3194390407047202A04
:1059900004DB203A21FA02F00021704721FA02F3D9
:1059A000D040C2F120029140084319467047202A96
:1059B00006DBCB17203A41FA02F043EAE07306E037
:1059C00041FA02F3D040C2F1200291400843194647
:1059D000704710B5141E73F1000408DA401C41F141
:1059E000000192185B411A4301D120F0010010BD63
:1059F0002DE9F04D92469B4611B1B1FA81F202E0D9
:105A0000B0FA80F220329046FFF7B2FF04460F460C
:105A100040EA0A0041EA0B0153465A46084313D0B4
:105A2000114653EA010019D0C8F140025046FFF771
:105A3000AEFF05460E46504659464246FFF798FFD0
:105A4000084305D0012004E020463946BDE8F08D2A
:105A50000020054346EAE0762C4337430A98630565
:105A6000E40AA0EB08000022FD0A44EA47540A3089
:105A700002D500200146E9E7010510196941DDE979
:105A8000084500196941BDE8F04DA2E7B0B54BF2F9
:105A90001404C4F2080454F8045CE8073DD1A807D4
:105AA00045D468074FD428075AD4E80665D4A80619
:105AB00070D468067CD4280600F18880E80500F1DF
:105AC0009280A80500F19C80680500F1A780280558
:105AD00000F1B380E80400F1BF80A80400F1CB809E
:105AE00068040BD5206A0E2141EA10504FF4804122
:105AF000216000F0FE00FF2100F044FD280458BFA3
:105B0000B0BD206A0F214FF4004241EA1060FF212E
:105B10002260BDE8B04000F035BDE0690121000120
:105B20002160C0B2FF2100F02DFDA807B9D5E069C2
:105B3000022140F00100216000F0F100FF2100F09F
:105B400021FD6807AFD5E069022141EA1010042168
:105B5000216000F0F200FF2100F014FD2807A4D519
:105B6000E069032141EA10200821216000F0F300E0
:105B7000FF2100F007FDE80699D5E069042141EA1C
:105B800010301021216000F0F400FF2100F0FAFC39
:105B9000A8068ED5E069052141EA10402021216048
:105BA00000F0F500FF2100F0EDFC68067FF583AF03
:105BB000E069062141EA10504021216000F0F60022
:105BC000FF2100F0DFFC28067FF578AFE069F021C7
:105BD00001EA1060802107302160FF2100F0D2FC33
:105BE000E8057FF56EAF206A4FF480710001083040
:105BF0002160C0B2FF2100F0C5FCA8057FF564AFAD
:105C0000206A4FF4007140F00900216000F0F900B3
:105C1000FF2100F0B7FC68057FF559AF206A0A2123
:105C200041EA10104FF48061216000F0FA00FF217A
:105C300000F0A8FC28057FF54DAF206A0B2141EA52
:105C400010204FF40061216000F0FB00FF2100F004
:105C500099FCE8047FF541AF206A0C2141EA10303D
:105C60004FF48051216000F0FC00FF2100F08AFC1D
:105C7000A8047FF535AF206A0D2141EA10404FF4AA
:105C80000051216000F0FD00FF2100F07BFC680462
:105C90007FF534AF26E70000704700007047000032
:105CA000B0B54FF00104F0B1054600F03DF82846CC
:105CB00000F01CF82868C16841F08001C160A98823
:105CC0008160C16821F08001C1600721C161A979AB
:105CD00001F0200264F35F1141EA0211C16042F257
:105CE00020000024A8832046B0BD00000068A0F179
:105CF0008040A0F505204FEAB020042888BF7047F7
:105D0000DFE800F00306090C0F00012000F03ABFA5
:105D1000012000F041BF012000F048BF012000F049
:105D20004FBF012000F056BF0168A1F18041A1F5ED
:105D300005214FEAB121042988BF7047DFE801F04F
:105D40000326496C8F004DF20401C4F208014FF4A0
:105D500000720A600A614FF480720A610A6046F2BA
:105D60001141A422C0F28001C2F20002116040F28F
:105D70006441C2F2000108604EF20010CEF2000051
:105D80004FF00071C0F88011016070474DF20401BE
:105D9000C4F208014FF400620A600A614FF48062A5
:105DA0000A610A6046F22141A422C0F28001C2F2D7
:105DB0000002516040F26841C2F2000108604EF2F8
:105DC0000010CEF200004FF08061C0F88011016039
:105DD00070474DF20401C4F208014FF400520A600A
:105DE0000A614FF480520A610A6046F23141A422EE
:105DF000C0F28001C2F20002916040F26C41C2F236
:105E0000000108604EF20010CEF200004FF0006179
:105E1000C0F88011016070474DF20401C4F208011E
:105E20004FF400420A600A614FF480420A610A603E
:105E300046F24141A422C0F28001C2F20002D160C8
:105E400040F27041C2F2000108604EF20010CEF242
:105E500000004FF00061C0F88011016070474DF202
:105E60000401C4F208014FF400320A600A614FF4E1
:105E700080320A610A6046F25141A422C0F28001D8
:105E8000C2F20002116140F27441C2F200010860E6
:105E90004EF20010CEF200004FF00051C0F8801119
:105EA00001607047437F202B1CBF022070470029F0
:105EB0004FF0010318BF002A01D118467047D0F8EF
:105EC00000C0082ADCF8103023F40063CCF810304E
:105ED00041614FF0220102834177DCF81C004FF052
:105EE000000320F0300028BF2030CCF81C00012037
:105EF000CCF8240018467047F0B581B0006845F230
:105F00000001C4F20801884201D001B0F0BD40F6A2
:105F10008A11C2F2000140F244400C78C2F2000043
:105F20000122FFF7BFFF40F64410C2F2000090F8D4
:105F3000211019B190F82010202905D340F2011149
:105F40000184047001B0F0BD4A1C082A80F82020AA
:105F50004454DAD101783C29D7D1C1793F29D4D131
:105F600041785029D1D181796529CED1022180F89B
:105F7000211090E81E5040F66817C2F2000787E82B
:105F80001E50018CD0E9065639844FF48071BD61F2
:105F9000FE61018401B0F0BD2DE9F04381B0984667
:105FA00017460D46044600F027FE217F202909D11F
:105FB0000646002D4FF0010018BF002F06D101B09A
:105FC000BDE8F083022001B0BDE8F0834FF47A70A1
:105FD00044F6D35108FB00F0C1F26201A0FB0110AE
:105FE0002121217718F10101278228D046F6E938CE
:105FF00087094FF48069C0F2800800BF30463946F7
:1060000042462346CDF8009000F0FBFD30BB208ACD
:1060100021680138208215F8010B4860208A002889
:10602000ECD146F6E9324025C0F2800230463946CE
:106030002346009500F0E5FDF8B104201EE020683D
:1060400002E000BF39040ED0016A8905FAD5791E35
:10605000218215F8011B4160278AF3E704200DE037
:10606000016A490609D4016A490606D4016A49064B
:106070005CBF016A5FEA4161F2D5002020212177EF
:1060800001B0BDE8F083000080B5037F202B07D16D
:1060900000294FF0010318BF002A0CD1184680BD1B
:1060A00040F63410C2F20000026814A101209047AB
:1060B0000223184680BDD0F800C0DCF8103023F46D
:1060C0000063CCF81030C160212102820177DCF836
:1060D0001C1021F0C001CCF81C100221CCF83810A3
:1060E000028AC368013A02825A1CC2601878CCF84E
:1060F00004000020CCF8241080BD00BF492F4E4F73
:106100005F5441473A554152545F5472616E736D0A
:1061100069745F62757379007047000070B504465A
:106120000068466B056A0169090506F002011AD488
:10613000F9B102218163217F21291AD1C16911F4AA
:10614000783F16D1218A002964D000BF016A8905F1
:106150000FD5218A69B1E26801392182511CE160C1
:1061600011784160F2E721B102218163204600F0FD
:1061700077F9F00733D02068016B49061ED4617FA0
:1061800022292CD1C169C1F3042141B3006862699D
:10619000531C63611070208B421E100422832BD08D
:1061A000206892B2C369082A23F03003A1F10101EB
:1061B00028BF20330A06C361E8D110E001218162C3
:1061C00040218163016921F480510161C16821F09E
:1061D0008001C1600068C1B22046FFF75DFDA807DD
:1061E00058BF70BD40F63410C2F2000002680EA124
:1061F0000120BDE87040104720680222C16962F3A7
:106200000511C16120216177012181622046FFF7DC
:1062100073FEE4E702218162202020772046FFF709
:106220007BFFF007A7D1DAE7492F4E4F5F54414774
:106230003A756172745F7278206F76657272756EEE
:106240002121210080B540F27840C2F200000321F4
:10625000002347F237528362C0E9041140F2205113
:10626000C0F28002C2F2000140F2305E4FF4806C56
:10627000C0E9182145F25241C2F2000EC0E908C33C
:106280004FF0100CC0F25401C0E9062EC362C0F8F2
:1062900068C0C366C0F8071044F24751C0F252010B
:1062A000C0E91C33BFF35F8FC0F8031044F25351B1
:1062B000C4F2477101602021BFF35F8F8171BFF38A
:1062C0005F8F80BDB0B540F27843C2F200031A7808
:1062D0008C46BABB0321002547F237529D62C3E9C1
:1062E000041140F22051C0F28002C2F2000140F2DB
:1062F000305E4FF48064C3E9182145F25241C2F286
:10630000000EC3E908451024C0F25401C3E9062E6B
:10631000DD629C66DD66C3F8071044F24751C0F2A7
:106320005201C3E91C55BFF35F8FC3F8031044F259
:106330005351C4F2477119602021BFF35F8F9971E7
:10634000BFF35F8FEFF3118E4FF0010181F31188DE
:1063500000EB400003EBC001084650F8243F50F822
:10636000042C5C1C4568A21A18BF2246AA4203D11D
:1063700000208EF31188B0BDC96901F803C0BFF3D6
:106380005F8F026001208EF31188B0BD042071463A
:10639000084202D0EFF3098001E0EFF308802146C4
:1063A000004A1047A963800010B50446D4E901C231
:1063B0000068E3688E466146F047206010BD00002B
:1063C0004EF68851CEF200010868012340F47000B7
:1063D00008604FF23800C4F2000050F8242C42F458
:1063E000E04240F8242C50F8102C63F305120623E9
:1063F00040F8102C0622C8F200030260036002601D
:106400004FF000524FF4615041F8802CFBF7B49FDD
:1064100040F26440C2F200000068FFF77FBE000057
:1064200040F26840C2F200000068FFF777BE00004B
:1064300040F26C40C2F200000068FFF76FBE00003F
:1064400040F27040C2F200000068FFF767BE000033
:1064500040F27440C2F200000068FFF75FBE000027
:10646000016802228A62FFF719BC00002DE9F04F93
:1064700081B04FF2500BC4F2000BDBF810504FF01C
:1064800000084FF001094FF4807A0027002600240D
:1064900008E000BF00F076F801360134082E07F15D
:1064A000020751D009FA06F10AFA06F0294205D08E
:1064B0002842CBF8001007D0032102E02842EBD09D
:1064C0000121CBF8000000E00221CBF80080DBF8CE
:1064D000040004F07F02072ADED8F84000F0010033
:1064E000DFE802F00A0E141A20262C0400284FF0D0
:1064F000190008BF1520CDE7002818BF2120C9E7E3
:1065000000284FF0220008BF0120C3E700284FF009
:10651000230008BF0220BDE700284FF02D0008BF70
:106520002020B7E700284FF0160008BF0E20B1E783
:1065300000284FF0170008BF2B20ABE700284FF0D2
:10654000180008BF1420A5E701B0BDE8F08F0000D7
:1065500010B50446C1B20020FFF7B4FE204610BDBE
:106560006FF01E0300F00F0103EA40004DF26403D8
:10657000C4F200034FF4803CC2580CFA01F11143FD
:10658000C1507047704700004DF264000021C4F212
:106590000000C9F6FF71816000214FF0C042016028
:1065A00042600022CFF6FF728262016282640022A2
:1065B000C0F2FF320164826601664DF20800C4F247
:1065C00008004FF08071016046F26D404C21C0F22E
:1065D0008000C2F2000108604EF20010CEF200000E
:1065E0000822C0F8802145F68D230260C0F28003A6
:1065F000C1F88030C0F8842142607047032988BF09
:106600007047DFE801F0023B16286FF01E0300F030
:106610000F0103EA40004DF26003C4F20003184486
:106620004FF00112836802FA01F123EA010181604F
:1066300070476FF01E014DF2600201EA4001C4F2A2
:10664000000211448A6800F00F00012383409A433E
:106650004FF4803323E06FF01E0300F00F0103EAD4
:1066600040004DF26003C4F2000318444FF00112E1
:10667000836802FA01F11943816070476FF01E01CF
:106680004DF2600201EA4001C4F2000211448A683E
:1066900000F00F004FF4803383409A43012303FA44
:1066A00000F01043886070476FF01E014DF26402E5
:1066B00001EA4001C4F200028B18895800F00F0073
:1066C0005A01C94342EA800221FA00F000F00100B9
:1066D0004FF08441505070473C2300F0F00203EA31
:1066E000800040EA821040F6804201F00101C4F2CD
:1066F0001A228150704700002DE9F04F03AF81B09E
:106700000A46092101EB420121F00701ADEB01012D
:106710008D46002A8E4600F08880531E47F2265987
:1067200002F0030C032BC0F2800905D200248E4630
:10673000BCF1000F44D178E022F00302C2F1000E58
:1067400000F10108A1F108026FF0030508EB05064E
:10675000F478337996F805A096F806B0260904F087
:106760000F0419F8066019F8044002F8086F547015
:106770001C0903F00F0319F8033019F80440D37013
:106780004FEA1A1319F8033094700AF00F0419F83D
:10679000044013714FEA1B1319F8033054710BF0C6
:1067A0000F040435937119F804300EEB050404341A
:1067B000D371CBD12C1D02F1080EBCF1000F34D0E7
:1067C000025DBCF1010F4FEA121502F00F0219F839
:1067D000055019F802208EF800508EF8012002D1E1
:1067E0000EF1020E21E020444278BCF1020F4FEA84
:1067F000121402F00F0219F8044019F802208EF862
:1068000002408EF8032002D10EF1040E0DE08078D4
:10681000020900F00F0019F8022019F800008EF8A4
:1068200004208EF805000EF1060E0A20AEF80000D6
:1068300003A000F0F5F9A7F10C04A546BDE8F08F20
:106840002573000040F6341046F66D01C2F20000D8
:10685000C0F28001016040F6301046F2F961C2F2E8
:106860000000C0F280010160FFF7ECBC82B0B0B55F
:1068700082B00C46054606A92046CDE906230191C3
:1068800000F0DEF935B140F23441C2F200010A20D5
:1068900000F047FE02B0BDE8B04002B07047000013
:1068A00040F24910C2F200004FF07F4101EAC050AF
:1068B0004FF20C01C4F2000108604DF2E400C4F292
:1068C0000000006840F65672C0F2140260F35552A0
:1068D0003C200A634861392088614FF6FF70C0F29E
:1068E0003F00886243F6FF708863704784B000F011
:1068F000F9F81E20FFF734FE1E2001210127FFF7C3
:10690000EBFE09200A2100F06DF80A200121FFF7B3
:1069100075FE40F24448C2F2000845F20000C4F29D
:10692000080098F80610C8F800008B20A8F80400AA
:1069300001F0C000033088F806004046FFF7B0F9C8
:1069400020A140461C224FF47A73FFF725FB40F646
:106950004410C2F200002221FEF7EDFD40F668145B
:10696000C2F20004002040F68A1184F82100C2F22D
:10697000000140460122FFF795FA48F2804643F6AF
:1069800065696D46C0F21E0606E000BF3046FBF7A3
:10699000F3DC1E20FFF788FE002FF7D094F82100CB
:1069A0000228F3D1002740462946022284F82170AC
:1069B000ADF80090FFF768FB4FF4A04000F026F917
:1069C000E4E700BF456E7465722074686520494134
:1069D00050206170706C69636174696F6E2E0D0A6E
:1069E0000000000070B54DF2440E40F64113C4F2B1
:1069F000000EC2F20003187040F640130EF11C05A1
:106A000000F0F002C2F2000305EB42023C241970D0
:106A1000131D04EA800444EA43134FF084444FF00A
:106A2000010C43F804C000F00F034FF480345668A3
:106A300004FA03F33343536001F0F00305EB43051D
:106A400001F00F026B6804FA02F293436B60EC688A
:106A50004DF2200324EA0202C4F20803EA6000F0C7
:106A6000FC021825D45805EAC005FF26AE40B44301
:106A7000282606FA05F52C432028D45008D32038C0
:106A8000DEF804200CFA00F01043CEF8040006E013
:106A9000DEF800200CFA00F01043CEF8000001F000
:106AA000FC0018261A5806EAC106FF25B540AA437D
:106AB000292505FA06F6324320291A500AD3A1F1F6
:106AC00020000121DEF8042001FA00F01043CEF886
:106AD000040070BD0120DEF8002088401043CEF88D
:106AE000000070BD80B500F096F84DF22C00C4F2A5
:106AF0000000012140F8041C0168472262F30701ED
:106B000001604FF238000422C4F200000421C8F2F0
:106B1000000201600260016046F28D306021C0F227
:106B20008000C2F2000108604EF20010CEF20000B8
:106B30004FF48071C0F880110160FFF783FEFFF70A
:106B400023FDFFF7ADFEBDE8804000F001B8000076
:106B500040F63C10C2F200000021016040F25D10DE
:106B60003C22C2F20000C2F2000210604EF210009D
:106B7000CEF2000043F67F6242608160072101602F
:106B80007047000040F63811C2F2000149014FF091
:106B9000085250507047000040F63811C2F2000110
:106BA00004224901C2F200225050704740F63811C9
:106BB000C2F2000108224901C2F20022505070477F
:106BC00040F63811C2F200010C224901C2F2002243
:106BD0005050704740F63811C2F2000110224901AE
:106BE000C2F2002250507047016840680968096A83
:106BF000084018BF0120704740F2C13CC2F2000CAF
:106C0000604740F2CD3CC2F2000C604740F2E91C04
:106C1000C2F2000C604740F2751CC2F2000C6047E3
:106C20000FB4054B10B503A9044A029800F0E2F82E
:106C300010BC5DF814FB0000516580003404002096
:106C4000014B024A00F0D6B85165800034040020A0
:106C500002E008C8121F08C1002AFAD17047704725
:106C6000002001E001C1121F002AFBD17047000083
:106C70002DE9FF5F82B00021DDE90430020DDDF86F
:106C800040B0034318D044F61050A2F2FF32424302
:106C90001514119801281FD0A5EB0B00401C5FEACA
:106CA000000A4FF000064E4FDFF83891B0465046CC
:106CB00015D5CAF1000413E0119801244AA3012854
:106CC00001D16FEA0B010298119AC0E90031C0E9C5
:106CD000024206B0BDE8F09FCBF10000DFE70446BA
:106CE0000021404A491842EB0450CDE9001012E05F
:106CF000E00707D032463B4640464946FEF714FDC2
:106D00008046894632463B4610461946FEF70CFD42
:106D100006460F466410002CEAD1DDE90401DDE9E6
:106D20000023BAF1000F06DAFEF7FEFC42464B469E
:106D3000FEF7FAFC05E0FEF769FD42464B46FEF71A
:106D400065FD04460E460022284BFEF7E7FD03D8FA
:106D50004FF0FF30014607E00022254B2046314628
:106D6000FEF73BFCFEF7C1FD102409E0002C0ADB16
:106D70000A220023FEF700FC039B30321A55641EE2
:106D800050EA0102F2D1641C039AC4F111031444C5
:106D9000119A012A03D0012208430DD10AE00843C9
:106DA00004D000204FF0110B119072E7A3EB0B05FC
:106DB0006D1E0DE05B4504DD4FF0000205F101059D
:106DC00004E003DA4FF00002A5F10105002AECD03F
:106DD00002981199C0E90231C0E9004579E7000045
:106DE000000014400000F03F300000000000F043BD
:106DF0000000E03F2DE9FF4F95B09B4689460646CF
:106E000000250FE2252877D100242746F84A0121E2
:106E1000059400E0044316F8013F203B01FA03F01B
:106E20001042F7D130782A2811D06FF02F03307834
:106E3000A0F13002092A16D8059A44F0020402EBA8
:106E4000820203EB42021044761C0590EFE759F8EA
:106E5000042B0592002A03DA504244F400540590B2
:106E600044F00204761C30782E2816D116F8010F53
:106E700044F004042A280DD06FF02F023078A0F1DE
:106E80003003092B09D807EB870302EB4303C7182C
:106E9000761CF3E759F8047B761C30786C280FD009
:106EA00006DC4C2817D068280DD06A2814D104E0DD
:106EB000742810D07A280FD10DE044F400140AE0B1
:106EC00044F4801401E044F440147278824202D108
:106ED00004F58014761C761C307866280BD013DC01
:106EE000582877D009DC002875D04528F6D04628E8
:106EF000F4D047281AD19DE118E0632835D06428E2
:106F000079D0652812D195E1702873D008DC672804
:106F1000F1D069286FD06E280DD06F2806D1B5E06A
:106F200073282CD0752875D0782874D05A461799B4
:106F300090476D1C75E1C4F30250022809D0032864
:106F40000DD0D9F8001004280DD00D6009F1040906
:106F500067E1D9F80010EA17C1E90052F6E7D9F85D
:106F600000100D80F2E70D70F0E719F8041B8DF8A2
:106F7000001000208DF80100EA46012003E059F8D6
:106F800004AB4FF0FF3061074FF0000102D40DE079
:106F900008F101018846B9420FDA8045F8DB1AF89A
:106FA00008100029F4D108E008F101018846814267
:106FB000FADB1AF808100029F6D105985B46A0EB19
:106FC000080721463846179A00F094FA284400EB47
:106FD000080507E04DE029E10DE01AF8010B5A46DB
:106FE00017999047B8F10108F7D25B462146384619
:106FF000179A13E142E00A220092C4F302524FF0C2
:10700000000A022A08D059F804CB032A4FEAEC718F
:107010000AD00DE029E02AE009F1070121F007027A
:10702000F2E802C1914609E00FFA8CFC4FEAEC71DC
:10703000042A03D14FFA8CFC4FEAEC71002907DADD
:107040000A460021DCF1000C61EB02012D2202E076
:10705000220504D52B228DF80420012203E0E2074B
:1070600001D02022F7E7904659E00A2102E01022E1
:107070000DE010214FF0000A00910BE010224FF0BC
:10708000000A44F004040827009203E008224FF0AD
:10709000000A0092C4F30252022A05D059F804CB28
:1070A0000021032A08D009E009F1070121F00702B5
:1070B000F2E802C1914605E01FFA8CFC042A01D1D6
:1070C0000CF0FF0C4FF00008220728D5702806D0DE
:1070D000009B83F0100353EA0A0305D00EE0402220
:1070E0008DF80420012208E05CEA010206D030227B
:1070F0008DF804208DF8050002229046009B83F055
:10710000080353EA0A030AD15CEA010201D16207CB
:1071100005D530228DF804204FF001087F1E582835
:1071200004D034A003900EA802900DE036A0F9E739
:1071300053466046009AFEF71FFA84460398825C25
:107140000298401E029002705CEA0100F0D10298A1
:1071500006A9081A00F1200A600702D524F4803439
:1071600000E00127574502DDA7EB0A0000E0002000
:1071700000EB0A01009005984144401A0590E00395
:1071800006D45B462146179A059800F0B3F90544EA
:10719000002706E001A85A46C05D179990476D1C6C
:1071A0007F1C4745F6DBE0030CD55B462146179A6A
:1071B000059800F09FF9054404E030205A461799DD
:1071C00090476D1C0099481E00900029F5DC08E0EE
:1071D000029802995A460078491C029117999047E3
:1071E0006D1CBAF10001AAF1010AF1DC65E10000B1
:1071F000092801003031323334353637383961628D
:107200006364656600000000303132333435363750
:1072100038394142434445460000000000F058F927
:107220000544761C307800287FF4ECAD19B0284670
:10723000BDE8F08F620700D4062709F1070222F0AB
:10724000070CFCE80223E14603F000485FEA080C63
:1072500002D00FF2702C0DE05FEA045C02D50FF251
:10726000682C07E05FEAC47C02D00FF2602C01E0DA
:10727000AFF2700C4FF0FF3823F00043CDF850C050
:1072800065280CD006DC452809D046281DD04728A3
:107290003DD13DE0662818D067287ED138E0002136
:1072A000112F01DB112000E0781CCDE9000106A9B7
:1072B0000EA8FFF7DDFCDDE90F010E9A0391002116
:1072C000009207F1010A04914DE04FF00040009751
:1072D000CDE9011006A90EA8FFF7CAFCDDE90F02EF
:1072E00003920E9B11990022DDF80CA000930492EA
:1072F00011B9791C00EB010AB7EB0A0004D4C0F104
:10730000FF3007F1010A0490AAEB0700019044E066
:10731000012F00DA01270021112F01DD112000E0EB
:107320003846CDE9000106A90EA8FFF7A1FCDDE96A
:107330000F010E9A0391002104910092BA46210791
:107340000CD40399514500DA8A46BAF1010F05DDE4
:10735000009AAAF10101515C302908D0B84202DA42
:1073600010F1040F06DA0121CDE9011015E0AAF1B0
:107370000101E9E7002805DC049901440491AAEB26
:10738000000102E0411C514500DD8A460499401A83
:10739000401C01904FF000400290200704D4019857
:1073A000504501DBCDF8048000208DF84F00029895
:1073B0000DF14F07B0F1004F25D02B200E90029811
:1073C0004FF0020800280CDA404202902D200E9067
:1073D00007E00A210298FEF7B9F83031029007F869
:1073E000011DB8F10001A8F10108F2DC02980028A3
:1073F000EFD1791E0E980870307800F0200040F030
:10740000450007F8020D12A8C01B00F107081498E8
:10741000007800B1012000EB0A01019801EBE07156
:1074200005984144401A401E0590E00306D45B468F
:107430002146179A059800F05DF8054414980078E5
:1074400018B15A46179990476D1CE00324D55B4646
:107450002146179A059800F04DF805441CE0049861
:10746000002807DBDDE90301884203DD0098405C6A
:10747000179901E0179930205A469047049805F172
:107480000105401C04900198401E019004D12E205B
:107490005A46179990476D1CBAF10001AAF1010AEA
:1074A000DDDC05E017F8010B5A46179990476D1C73
:1074B000B8F10001A8F10108F4DC5B462146179AF7
:1074C0000598ABE62D0000002B0000002000000016
:1074D0002DE9F041044600251E461746880404D4D1
:1074E00005E039462020B0476D1C641EF9D52846BA
:1074F000BDE8F0812DE9F041044600251E46904686
:10750000C80301D5302700E02027880404D505E012
:1075100041463846B0476D1C641EF9D52846BDE883
:10752000F081FFF715B8303132333435363738391A
:10753000414243444546005465726D696E616C007A
:107540000051800000000020EC000000506C800022
:10755000EC5180003401002000030000506C8000DA
:10756000EC5480003404002004000000506C8000C3
:10757000807580003804002054050000606C800095
:04000005008054F132
:00000001FF
